:020000040800F2
:10000000000002206D0D0508BD0D0508810E0208D7
:10001000690E0208710E0208790E02080000000045
:10002000000000000000000000000000BD0D0508F9
:10003000BD0D050800000000BD0D0508D50D020826
:10004000BD0D0508BD0D0508BD0D0508BDCA02089A
:10005000BD0D0508BD0D0508A9C70208B5C70208F2
:10006000C1C70208CDC70208D9C70208BD0D0508DF
:10007000BD0D0508BD0D0508BD0D0508BD0D050824
:10008000BD0D0508BD0D0508BD0D050800000000EB
:10009000000000000000000000000000E5C70208AA
:1000A0008DC602089DC60208ADC602083DC60208FC
:1000B0004DC602085DC602086DC60208156E03082B
:1000C000BD0D05081D6E0308BD0D0508BD0D050815
:1000D000BD0D0508557D03085D7D03080000000087
:1000E00011C80208F1CA0208BD0D05080000000091
:1000F000000000000000000000000000BD0D050829
:1001000000000000BD0D05087DC60208BD0D0508F4
:1001100000000000000000000000000000000000DF
:10012000BD0D0508BD0D0508BD0D0508BD0D050873
:10013000BD0D0508000000000000000000000000E8
:100140000000000000000000000000009D81020887
:10015000BD0D0508BD0D0508BD0D0508657D03082D
:10016000256E0308BD0D050800000000000000001A
:10017000000000000000000000000000000000007F
:1001800000000000BD0D0508000000000000000098
:08019000BD0D0508BD0D0508B9
:10400000034B1A6A02601A691862826400207047C2
:104010007C3C0020024B1A6A12681A62704700BF8B
:104020007C3C0020C460056146618761C0F81C804B
:10403000C0F82090C0F824A0C0F828B0C0F82CD058
:1040400080ED0C8B80ED0E9B80ED10ABC0F808E08E
:10405000FFF7D6BF08B5114A136A0BB91CF056FE1C
:10406000996C58601161196811621846C468056935
:1040700046698769D0F81C80D0F82090D0F824A039
:10408000D0F828B0D0F82CD090ED0C8B90ED0E9B92
:1040900090ED10ABD0F808E0012070477C3C002088
:1040A00010B50A460021044600F022FB00B110BD05
:1040B000002CFCD0204609F097FE00BF0A460021E4
:1040C00000F016BB10B50A460121044600F010FBB3
:1040D00000B110BD002CFCD0204609F085FE00BFC9
:1040E000FFF7DEBF10B501220C4600F0C1FC00B1A5
:1040F00010BD002CFCD0204609F076FE00F0B8BCC4
:1041000000F07ABC2DE9F0432A4C00254FF003095A
:10411000D4F82C710021013143189A0803F00303ED
:10412000BA5C5B0042FA03F303F00303022BF2D004
:10413000D4F8383109018A0803EB001081B300EB91
:10414000820103681A0728D1D4F838219A4224D86A
:104150009A1AD4F83C614FEA921C120902F0030744
:104160009E424FEA470718D9D4F82CE11EF80C807C
:1041700048FA07F303F00303012B0ED109FA07F7FE
:1041800047EA080704EB85083F2D0EF80C709ABF2C
:104190000135C8F84821C4F8443104308842D0D1F0
:1041A0002DB1013D04EB8503D3F84801B0E7BDE82C
:1041B000F08300BF7C3C0020114BD3F838218242B1
:1041C00015D8D3F83C11884211D230B4801AD3F8F4
:1041D0002C418109000900F00303655C5B0045FA8E
:1041E00003F202F00302012A02D030BC704770478C
:1041F000032202FA03F31D43655430BCFFF782BF6C
:104200007C3C0020F8B5234DD5F83861002E3ED017
:10421000861BF109D5F834014FEA161E435C0EF0F7
:1042200007040122A24023EA02034354B609D5F849
:104230002C41A05D714637460EF003034FF0030C8E
:104240005B000CFA03F320EA0303E3550131D5F8D0
:104250002C418F0801F00303E05D5A0040FA02F29E
:1042600002F00302022AEBD0A1EB0E01082928BFBD
:104270000821913105EB81014B68B342D5F86C32CE
:1042800088BF4E60B34238BFC5F86C62F8BD0820E5
:104290001DF090FC7C3C0020174BD3F83811814274
:1042A00017D8D3F83C21904213D210B4401AD3F857
:1042B0002C4183090109E35C01F003025200134120
:1042C00003F00303012B4FF0000004D05DF8044B12
:1042D00070470020704701300B189A0803F0030361
:1042E000A25C5B0042FA03F303F00303022BF2D05B
:1042F00000015DF8044B70477C3C00200B4BD3F869
:10430000382182420FD8D3F83C1188420BD2801A50
:10431000D3F83421C309C0F30210D35C43FA00F090
:1043200000F0010070470020704700BF7C3C002077
:10433000F8B521F00F06331A03F10053013B1C4A74
:104340001C4DDC00A2FB0434640A621C8118A6EB3D
:104350008413C5F834110021C5F83831C5F830414F
:10436000C5F82C01C5F83C6148F046FBA2000732B5
:10437000D2080021D5F8340148F03EFB202200216C
:1043800005F5137048F038FBD5F83021D5F83831F1
:10439000501E03EB821301210022C5F86C02C5F800
:1043A000403185F84812AA82C5F87022F8BD00BFD6
:1043B000F32C23FA7C3C0020024A938A0133938237
:1043C000704700BF7C3C0020024A938A013B9382E5
:1043D000704700BF7C3C0020024B988A003018BF19
:1043E000012070477C3C0020030700D07047FFF796
:1043F000E3BE00BF79B138B5041F04EB810501E0CD
:10440000A54207D054F8040F0307F9D1FFF7D4FEF3
:10441000A542F7D138BD704770B5124DAB8A002266
:104420000133AB82C5F8442105F1140405F58C76FF
:1044300001E0A64207D054F8040F0207F9D1FFF7B4
:10444000BBFEA642F7D1D5F87002030701D1FFF7F2
:10445000B3FEA8682969091A8908BDE87040FFF70A
:10446000C9BF00BF7C3C00202DE9F04F514CD4F86F
:104470003061D4F8443183B0B000002583B3C4F870
:104480004451F8B10027BA08D4F82C1107F00303FF
:104490008A5C5B0042FA03F303F00303032B05D0AD
:1044A00001378742EFD3D4F84431E7E73846FFF7C6
:1044B00029FED4F830610137B0008742E3D3D4F845
:1044C0004431DBE7202200213B4848F095FAA38ADB
:1044D000013E013BC4F86C62A38203B0BDE8F08FDB
:1044E0000028EFD09E461F464FF003094FF0020B05
:1044F00006E0032B52D0012B22D001378742E1D2B4
:104500004FEA9708D4F82C2107F0030512F8081099
:104510006D0041FA05F303F00303022B02EB080CD4
:10452000E7D1BEF1000FE8D009FA05F521EA05014F
:104530008CF80010D4F830614FF0010EB000DCE7C9
:10454000FE08D4F8342112F806E007F0070A4EFA04
:104550000AF0C3073244E7D53801D4F838110B58B4
:1045600008446BB16A46B32109F034FE009810B1DB
:1045700001990AF001FED4F8342112F806E0324421
:10458000012303FA0AF32EEA030E82F800E0D4F8BE
:104590002C3103EB080C13F80810C5E70BFA05F5EE
:1045A00021EA050102F80810D4F830614FF0000E3E
:1045B000B000A2E77C3C0020C83E002038B5064C85
:1045C000A38A00250133A382C4F84451FFF74CFFAE
:1045D000C4F8385138BD00BF7C3C00202DE9F047BD
:1045E0003D4DD5F83811D5F83C210023521AC0E9C9
:1045F0000023C0E90233C0E904331C4683619C46B2
:104600001E4619469A4699469E46D5F82C2112F820
:104610000A804FEA490948FA09F808F00308B8F196
:10462000010F4FD047D3B8F1020F02D101344460DB
:104630000131D5F83021013392009A4211D0D5F8DA
:104640002C714FEA930A03F0030917F80A804FEA26
:10465000490748FA07F818F0030802D0B8F1010F2B
:10466000D3D1012912D0022902D14769013747610C
:1046700087698F4238BF81619A4210D0B8F1010F2B
:1046800024D04FEA930A03F00309BEE70769013714
:10469000076187698F4238BF81619A42EED17645C2
:1046A00002D99A42C66015D124014FEA0C13C0E921
:1046B0000143BDE8F0870CF1010CC0F808C00136D9
:1046C0004146B6E7013444604146B2E7B645E8D317
:1046D0000026D6E7B646FBE77C3C0020034BD3F828
:1046E0003801003018BF0120704700BF7C3C00201B
:1046F0002DE9F04F0F308DB001F001035FEA101883
:104700000A937AD0DFF8ECB2BBF81430002B74D1E6
:10471000DBF838110892002900F069814346082B24
:10472000DBF840219BF8480228BF082391330BEBAC
:104730008303521A12090B9380F00103099202932A
:104740000B9B5B680193DBF86C320393089B002B97
:1047500058D1019B039A93424BD84FF0010C1D4650
:104760006646CDF81CC01CF1010163460CBF032353
:10477000002305935B00DBF82C2106934FEA8C03A2
:10478000009204934FEA850E77004FF0000903244E
:10479000009B585D029B002B40F0B780079B5A1C82
:1047A00000F0CC80012B00F0E980DDF814A006E0D9
:1047B0000AF1010A4FF00009BAF1040F0DD04FEAD7
:1047C0004A0304FA03F30342F2D109F10109C8458F
:1047D00023D9B244BAF1FF3FEED1019B6544AB420D
:1047E00004D8049B9E44039B9D42D1D9C84540F206
:1047F000F880029B002B00F0AE80002318460DB01D
:10480000BDE8F08F019B039D1A46AA42F1D84FF0F4
:10481000FF3C6646CDF81CC0A5E70AEB0E01089BDD
:10482000481C002B40F0CA80A0EB0904B8F1070F28
:1048300004F1010525D80BEB880608EB01034FEACC
:104840009303C6F84832C6F84C321AD0B8F1060FB6
:10485000C6F8503215D0B8F1050FC6F8543210D052
:10486000B8F1040FC6F858320BD0B8F1030FC6F8F0
:104870005C3206D0B8F1010FC6F8603201D1CBF836
:104880006832A208009F04F00303BF5C5E000123AE
:10489000B3403B43009FA942BB540FD34FF0020CDF
:1048A000AA08DBF82C6105F00303B75C5B000CFA87
:1048B00003F301353B43A942B354F1D2DBF838612D
:1048C000089A250173192AB1DBF840219A4288BF62
:1048D000CBF84031021B12011846002148F08CF839
:1048E0000A9A03466AB100227251E108DBF83401EA
:1048F0000122455C04F0070402FA04F444EA0502CC
:10490000425418460DB0BDE8F08FDDE9053109E0ED
:1049100033444FF000095A1C3FF45FAF042B394475
:104920003FF45BAF04FA01F202429A46F0D109F17A
:104930000109C8457FF671AF3344ECE74FF0030A35
:104940004FEA4A0304FA03F3034209D0099A0AEB37
:104950000E039A423DD91CF0B5F901230293EFE60C
:1049600009F10109C8457FF658AFB244BAF1FF3FDB
:104970003FF433AFBAF1040FE2D12EE7DDF808A01F
:104980000CE0099A0AEB0E039A42E4D90AF1010AF3
:104990004FF00009BAF1040F3FF41FAF4FEA4A038A
:1049A00004FA03F30342ECD109F10109C8457FF68B
:1049B00034AFB244BAF1FF3FECD10EE74A1E09EB27
:1049C0000103920805460C46CBF86C221846591E86
:1049D00057E70AF1FF3ABAF1FF3F4FF00009AFD1B4
:1049E000FBE6DBF82C3100934FF0FF3117E708208E
:1049F0001DF0E0F87C3C0020034B9B8A13B908B102
:104A0000FFF700BC704700BF7C3C0020030701D1CA
:104A1000FFF742BC00207047F8B5144ED6F840317D
:104A20008342044601D9030702D025462846F8BD33
:104A3000FFF732FC07460028F7D02046FFF75EFC60
:104A4000012201463846FFF753FE05460028ECD008
:104A5000844205D9B38A002BE7D1FFF7D3FBE4E703
:104A60003A46214647F084FFE0E700BF7C3C002047
:104A70002DE9F84F0746002800F0B2805D4D0E4644
:104A8000AC8A002950D0002C50D1D5F83811D5F877
:104A90003031A0EB010E4FEA1E1C0CF101004FEA71
:104AA000830906F10F0181454FEA111140F29F8001
:104AB000D5F82CA14FF001084FEA900B00F003034A
:104AC0001AF80BB05B004BFA03F303F00303022B5D
:104AD00030D023B9013408EB04038B422CD3414579
:104AE00057D02DD344448C4257D30CEB08028C444E
:104AF00094450FD94FF0020E9008D5F82C4102F0E2
:104B00000303265C5B000EFA03F301323343944542
:104B10002354F1D1A1EB0802120107EB0810002188
:104B20003C4647F069FF02E0002C54D000242046A8
:104B3000BDE8F88F08F1010801308145BCD1CEE70E
:104B40008C44A8EB01010CEB010860464FF0030E0A
:104B50008608D5F82C2100F00303945D5B000EFA63
:104B600003F3013024EA030380459355F0D108296B
:104B700028BF0821913105EB81014FEA9C034A6867
:104B80009A42D5F86C2288BF4B609A4238BFC5F86C
:104B90006C323C462046BDE8F88F4FEADE1ED5F861
:104BA000343113F80E100CF0070C41FA0CF1002A06
:104BB000BCD001F0010130460022FFF799FD044608
:104BC0000028B3D04FEA0812394647F0D1FEAB8A2D
:104BD000002BACD13846FFF715FB2046BDE8F88F17
:104BE00008463A463946BDE8F84FFFF781BD4FF019
:104BF000010874E77C3C0020020701D000207047C8
:104C000038B50446FFF748FBC8B1144DD5F87032EB
:104C100043B15A68AAB19A68BAB1DA68BAB11B68E6
:104C2000002BF6D1012200211020FFF761FD034681
:104C300028B1D5F8702262B100221060FFDE00209A
:104C400038BD04331C60012038BD0833FAE70C334B
:104C5000F8E7C5F870025C60012038BD7C3C00209C
:104C6000034610B3020720D110B51B4AD2F83841D1
:104C700084421CD8D2F83C21824218D982070FD135
:104C80000268164CA24214D0154CA24215D0154908
:104C90008A4216D014498A4213D014498A4206D057
:104CA0001846BDE81040FFF7B7BE184670471846D3
:104CB00010BDBDE8104000F06FB8BDE8104000F036
:104CC00017B8D8681C46FFF7A7FEE0602046BDE88D
:104CD0001040FFF7A1BE00BF7C3C0020E8CA0508D9
:104CE0000CD4050860DF05087CDC0508A0E4050895
:104CF00001B9704738B54C1EE4B2054621464068FC
:104D0000FFF7AEFF21466860A868FFF7A9FF2146BC
:104D1000A860E868FFF7A4FFE8602846BDE83840CF
:104D2000FFF77ABEF0B5044683B038B131B1194B04
:104D3000984203D0037913F00A0602D0204603B04C
:104D4000F0BD43F008030371C0680191FFF764FEF2
:104D5000A268E060A2B101990139CDB200E0E0683B
:104D600050F83630294600EBC60733B1042B04D087
:104D70007868FFF775FF7860A26801369642EED337
:104D80002046FFF749FE03796FF3C303044603711E
:104D9000D4E700BFEC3C002010B10E2800D001B9D0
:104DA00070472DE9F843044680680E46FFF734FE4D
:104DB000013EF6B2A06031466068FFF7B3FF002500
:104DC000606013E0E36853F82500FFF71FFE60B151
:104DD000E36853F825703B78022B34D038463146CF
:104DE000FFF73EFFE36843F808000135E068FFF78E
:104DF0000DFEB5EB900F4FEA8508E3D3E068FFF7AF
:104E00000BFEE0602046FFF701FE8008B0F10408C9
:104E100014D0DFF8549004F10C07002557F8043F34
:104E2000314618463BB19A0702D11A684A4516D056
:104E3000FFF716FF386001354545EFD12046BDE844
:104E4000F843FFF7E9BD7868FFF7E6FD7860B868DA
:104E5000FFF7E2FDB860E36853F80870BEE7FFF7BC
:104E600061FF3860E7E700BF48C50508024BC3E9AA
:104E700002011861704700BF7C3C002008B5084A59
:104E8000C31DD2E9031023F0070303448B4201D86A
:104E9000136108BD40F6E66102480AF043F900BF1D
:104EA0007C3C002034C90508014488420ED241F2FE
:104EB000055310F8012B03EB4313814283EA0203ED
:104EC000F7D113F0FF0008BF01207047052070479D
:104ED000034B044ADA620022C3F81C21704700BF6A
:104EE0007C3C0020BC6505082DE9F0478A46411846
:104EF000884281463BD2034641F2055513F8012B07
:104F000005EB4515994285EA0205F7D115F0FF0535
:104F100008BF0125174BD3F82C80B8F1000F23D020
:104F2000D8E90376DFB1002402E00134A74216D0AD
:104F300016F81430AB42F8D106EB44035B785345C6
:104F4000F3D108EB840352465869494647F068FD9F
:104F50000028EAD1D8F804002044BDE8F087D8F84A
:104F60000080B8F1000FDBD14046BDE8F087052591
:104F7000D0E700BF7C3C00202DE9F84380460E4678
:104F8000FFF7B2FF002869D1FF2E00F2A880594D2B
:104F9000D5F81C71741C002F6BD0D5F82431D5F8CE
:104FA0002011E2188A4276D808EB0604A0451F4477
:104FB000C5F8242180F08480424641F2055312F85E
:104FC000011B03EB4313944283EA0103F7D113F06F
:104FD000FF0408BF01243246414638464FF000091D
:104FE00047F0C6FC07F80690E86AD0E902329A4218
:104FF00021D34FEA4308B8F1400F28BF4FF04008D3
:1050000008EB4800400014300121FFF757F8002852
:105010006CD000F1140303EB88030361EB6A0360B7
:10502000EA6A5368D268C0F80C901344C0F808804C
:105030004360E862C268036903F81240EB6A1B69C7
:1050400003EB42035E70EB6A03EB82035F61E96A84
:10505000CB680133CB60EB6A58681044BDE8F88335
:105060000246D5F82411D5F81C01FFF747F8C5F81A
:105070001C71802CA14638BF4FF0800948460121A1
:10508000FFF71CF80746C5F81C01D8B1C5F82091F8
:105090002246002388E7024621443846FFF72EF8CF
:1050A00007460028DCD0D5F82031D5F81C71234400
:1050B000C5F82031002FDCD0D5F82431E21873E791
:1050C000052488E701212046FEF7F8FFA1460746A0
:1050D000C5F81C010028D9D1204608F085FE0648F5
:1050E0001DF038F80146054808F01CFE404608F05F
:1050F0007BFE00BF7C3C0020CC78050834C9050845
:1051000010B5044647F0AEFC01462046BDE810400D
:10511000FFF732BF064BDB6A5A68824203D91B682D
:105120005A689042FBD3801A1B6913F8100070472D
:105130007C3C0020074BDB6A5A68824203D91B681B
:105140005A689042FBD31B69801A03EB40004078F9
:10515000704700BF7C3C0020064BDB6A5A689042D7
:1051600003D21B685A689042FBD3801A03EB80037A
:10517000586970477C3C0020094BDB6A5A688242C0
:1051800003D91B685A689042FBD3801A1A6903EB53
:10519000800302EB4002586953780B60704700BFF0
:1051A0007C3C002038B5D0E90023194491420ED947
:1051B000037BDB0705460BD401F1100424F0070440
:1051C000083421468068FEF78DFF2C60A86038BD4A
:1051D0000021014808F0A6FD34C9050870B5044651
:1051E0000E4611461546FFF7DDFFD4E901302A4689
:1051F0003146184447F0E8FB62682A44626070BD9B
:1052000070B5466804468E42354628BF0D460121DA
:10521000FFF7C8FFA168681C721B0844294447F0C7
:10522000D3FBD4E9013001336360284470BD00BF73
:1052300038B504460025002914BF08460120C4E9FA
:1052400000052946FEF72CFF237BA06065F30003D1
:10525000237338BD70B50D4601310ED004460026CB
:10526000681CC4E900063146FEF71AFF237BA060E4
:1052700066F300036560237370BD284608F0B4FD33
:10528000037B016010B443F001030024C0E9014234
:1052900003735DF8044B704770B504460025002980
:1052A00014BF08460120C4E9000529461646FEF74A
:1052B000F7FE237B034AA06065F300032373C6E96E
:1052C000004270BDDD51000810B5037BDB070446CA
:1052D00002D48068FEF714FF0023A36010BD00BF56
:1052E00070B5002105461020FEF7DAFE002D0446B9
:1052F00008BF012500260560314628466660FEF796
:10530000CFFE237BA06066F300032373204670BDAD
:1053100088B110B5037BDB07044604D52046BDE801
:105320001040FEF7EDBE8068FEF7EAFE2046BDE8BD
:105330001040FEF7E5BE704738B5037BDB070CD4A1
:105340000D460168044629448068FEF7CBFE2368B9
:10535000A0601D442560184438BD0021014808F0B4
:10536000E1FC00BF34C9050838B504460D46FFF717
:1053700019FFD4E901301D446560184438BD00BFF1
:1053800010B5D0E900239A42044604D0A268002157
:10539000D154A06810BD0121FFF7CEFF6368A26859
:1053A0000021D154A06810BD38B504460D46012136
:1053B000FFF7F8FED4E90132591C6160D55438BDBD
:1053C0007F292DE9F041CDB2064636D905F03F05DB
:1053D000B1F5006F0C4645F08005C1F387171ED369
:1053E00007F03F07B1F5803F47F08007C1F307386A
:1053F0002DD30421FFF7D6FED6E90121A40C131DFD
:10540000736008F03F088B1864F00F048C5468F048
:105410007F0883F801809F70DD70BDE8F081022174
:10542000FFF7C0FED6E90132991C716067F03F07B3
:10543000D118D7544D70BDE8F0810121FFF7B2FEBD
:10544000D6E90132591C7160D554BDE8F0810321C1
:10545000FFF7A8FED6E90131DA1C726068F01F0878
:10546000CA1801F8038057709570BDE8F08100BF3D
:1054700038B5054608460C4647F0F4FA2146024680
:105480002846BDE83840FFF7A9BE00BF10B5144656
:10549000FFF7B6FE047010BD10B51446FFF7B0FE5E
:1054A000047010BD43688B4234BF00235B1A436015
:1054B000704700BFF8B545688D4203D98F18BD42CB
:1054C00001D84160F8BD044680680B466D1A164647
:1054D000C119AA1A184447F077FA6268921B6260F1
:1054E000F8BD00BF084611464BF0B0BB70B506468C
:1054F00008460D4647F0B6FA044620B12946D6E9DB
:10550000000322469847204670BD00BF2DE9F84FA2
:105510009DF828400B9E14F0DF0F914605468A4601
:10552000A6EB020239D0302C0AA9234F0EBF4FF050
:1055300010080F464FF0010813F0800633D002EB3D
:10554000D2767610941B002E32DDB346D845424603
:10555000A8BF5A46ABEB020BD5E900033946984782
:10556000BBF1000FF2DCB9F1000F05D051464A46FD
:10557000D5E9000398474E44002C0BDD2644A04596
:105580004246A8BF2246A41AD5E9000339469847E7
:10559000002CF4DC3046BDE8F88F13F08006074F8E
:1055A0004FF01008CBD113F0010403D01446DAE712
:1055B0000026D8E71646C6E738AA050824AA050833
:1055C0002DE9F04389B0002480468DF80F40119FEB
:1055D0009DF84890139D32B1A1421BDBBA074BD511
:1055E0002B228DF80F20C9B908AC302304F8013DF7
:1055F00017F040062BD09ABB164608AACDE90095B5
:105600003B464046121B2146FFF780FF304409B05D
:10561000BDE8F0832D2249428DF80F20109808AC88
:105620000DF1100CA0F10A0E01E0002EE0D0B1FB4C
:10563000F3F603FB161009288CBF7044303004F8D1
:10564000010D64453146F0D117F04006D3D1002A50
:10565000D3D004AB9C42D0D904F8012C013CCCE758
:105660000122CDE900923B460DF10F014046FFF7C4
:105670004DFF013D0646C0E717F004021CBF202283
:105680008DF80F20AFE700BF2DE9F04F91B00F4626
:105690000490C80792461D461A9C9DF86C901D9E6A
:1056A0000BD4B90703D19A4B3A689A4205D03846D1
:1056B0000AF0F0FB400040F0010714F0810303D131
:1056C000B9F1300F00F0FA8038460EF001F90028E9
:1056D000C0F28380A2077ED52B23EAB2E5068DF8BF
:1056E00020300DF120080DF121037CD414F0200F9F
:1056F0004FF0000C0DF1300B4FF0100014BF2C21B7
:10570000614683F800C0012EA3EB0803CDF82CC03E
:105710000593CDE909B07ADDCDE90221CDE900ACF0
:105720003B460BAA0AA909A88DF81FC00DF0B4FECC
:1057300003782D2B824644F0400200F08C800B9BB6
:105740009DF81F10B342B8BF3346002940F0D38004
:1057500005990B441C99994222F0010469DD12F06D
:105760000107A1EB030340F0C0802022CDE9002314
:10577000684904983B463A46FFF7C8FE05469DF83F
:105780001F304FF03009002B76D1059B002B40F0E5
:1057900084801C9B0B9ACDF80090012ED8BF1E462A
:1057A0000196234651460498FFF7B0FE05444FB1D9
:1057B0002022002300920197049856491A46FFF7C9
:1057C000A5FE05440998584501D0FEF799FC2846E6
:1057D00011B0BDE8F08F63077FD40DF12008434678
:1057E000EAB2E50682D5BAF1020F6ED0BAF1080F1F
:1057F00000F08380BAF1100F7FF478AF19463020A3
:1058000001F8020B02F1170058700B466EE714F016
:1058100040058DF81FC00FD1CDE90221CDE900A8C8
:105820003B460BAA0AA909A80DF036FE2F46824670
:10583000AFE700273D46A2E7CDE90221CDE900AC64
:105840003B460BAA0AA909A80DF026FE03782D2BCA
:105850008246224609D10B9B2D21013B012E0AF1E4
:10586000010A0B938DF81F1042DC9DF81F300027B2
:1058700014463D46002B88D000230122CDE900329A
:105880000DF11F010498FFF741FE1C9B013B1C9387
:10589000059B0544002B3FF47CAF4146DDF81480A6
:1058A000049800230122019200934246FFF72EFE46
:1058B0001C9B42469B1A1C9305446AE71C9AB24201
:1058C000B8BF32461C921E46FEE61946302001F84B
:1058D000020B501C58700B4608E720238DF820302F
:1058E0000DF120080DF121037AE71F46002546E758
:1058F000B342B8BF334601332AE7A0054FF0300169
:10590000197045BF02F10E01597001330233EDE603
:10591000F8CE050828C006082DE9F04314468BB0E0
:105920000A46A10780469946129E24D414F0040F1B
:105930000CBF00232023009302A8139B202107F013
:1059400049F9E305054602D5431C1F2B15D914F070
:10595000400720D09DF808302F2B1ED902A9002720
:10596000CDE9009623462A464046FFF7CFFD38444E
:105970000BB0BDE8F0832B23DDE70AAA15442521EF
:105980001A4405F8201C14F040074FF000011D4692
:1059900002F8201CDED102A9E2E70122002302A9BD
:1059A000CDE900324046FFF7B1FD013E013D07461B
:1059B0000DF10901D4E700BF2DE9F04F8BB00B7852
:1059C00004AF834691464FF0000A002B00F0D480CC
:1059D000252B00F0C2810D4602E0252B04D0254680
:1059E0006B786C1C002BF8D1A14280F0B681661A4E
:1059F000DBE90003324698476B78B244002B00F095
:105A0000BB8063780134002B00F0A38120220026A4
:105A10000EE02B2B5FD0202B60D0212B61D0302BC0
:105A200040F0518146F040061A4614F8013F3BB160
:105A30002D2BEED114F8013F46F00106002BF7D1D3
:105A4000FA60002594F800804FF0FF33B8F16C0F36
:105A500004BF94F801800134B8F1000F00F08C808D
:105A6000A8F14502332A00F22681DFE812F00C018A
:105A70000C010C012401240124012401240124012E
:105A800024012401F50024012401C700240124017C
:105A900024012401AE002401240124012401240155
:105AA00024012401240124019C008A0070000C01BF
:105AB0000C010C01240124012401240124012401EE
:105AC00024012401F500560024013D002401AE000C
:105AD00024012401AE0046F00206A6E746F00406C3
:105AE000A3E746F00806A0E7D9F80080BB6040466F
:105AF00046F0B8FFBB68591C09F10409024602D000
:105B0000984228BF1A460195FB68009341463346E8
:105B10005846FFF7FBFC824429E007F11401D9F84D
:105B20000000BB60FFF728FBBB687A690146581C80
:105B300009F1040902D09A4228BF1A460195FB6870
:105B4000009358463346FFF7E1FC82440FE0D9F852
:105B500000100395FA686123CDE9016200930122E8
:105B60000A235846FFF72CFD09F104098244611C01
:105B70000B78002B7FF42CAF50461C37BD46BDE898
:105B8000F08F07F11801D9F8003001F8043D0195B4
:105B9000FA680092334601225846FFF7B7FC09F134
:105BA00004098244E3E7D9F80030019509F10409BA
:105BB000002B00F0C480FB68009304223346684940
:105BC0005846FFF7A3FC8244D1E728F00F020F3AB2
:105BD000D2B2D9F8001003950092FA6808F10103D7
:105BE00003F00603CDE90162C3F110030022584619
:105BF000FFF7E6FC09F104098244B8E7D9F8002070
:105C00003B6010467A601CF053FAC11D21F0070179
:105C10007A68C7F808D0ADEB010D84460DF1100885
:105C2000104641460CF1FF327A601CF045FA3B68A1
:105C30007A68581C09F1040902D09A4228BF1A4612
:105C40000195FB680093414633465846FFF75EFCDA
:105C50008244D7F808D08AE7DBE9000302224149F1
:105C60009847D9F800100395FA686123CDE90162DD
:105C70000093002210235846FFF7A2FC023009F1DE
:105C80000409824473E709F1070929F00709D9E9F2
:105C90000001BB604FF0DEFDBB68CDE9005300EEB4
:105CA000100AFB68324641465846FFF735FE09F1B7
:105CB000080982445BE7DBE900030122214698479B
:105CC0000AF1010A53E72378FA60A3F13002092AA6
:105CD0004FF000050BD805EB850503EB450514F8DF
:105CE000013FA3F13002092AA5F13005F3D92E2B8B
:105CF0007FF4A8AE94F80180B8F12A0F15D0A8F16E
:105D00003003092B04F101044FF000033FF69EAE6F
:105D100003EB830308EB430314F8018FA8F130026F
:105D2000092AA3F13003F3D990E6D9F8003094F8AA
:105D3000028023EAE37309F10409023486E6FB6872
:105D400000930522334608495846FFF7DFFB82449B
:105D50000DE71E462023FB6073E60C4651E600BFAC
:105D600010AA050820AA050818AA05080EB400B54F
:105D700082B003AA52F8041B0192FFF71DFE02B085
:105D80005DF804EB03B07047F8B5054600AF084670
:105D90000C4616461CF08CF9073020F00700ADEBDE
:105DA000000D694620461CF087F9324669462846B0
:105DB000FFF702FEBD46F8BD0EB400B582B003AADF
:105DC00052F8041B0192FFF7DFFF02B05DF804EB0D
:105DD00003B070470278110602D413461846704784
:105DE00002F07F03520605D5402223EA020352083F
:105DF0001342FAD1427802F0C0018029EED110B4EA
:105E0000013002F03F0410F8012F02F0C001802998
:105E100044EA8313F5D018465DF8044B704700BF81
:105E2000437803F0C003802B00F1010205D112F882
:105E3000013F03F0C003802BF9D01046704700BF2C
:105E400081424FF0000208D911F8013D03F0C00370
:105E5000802B18BF01328842F6D11046704700BF30
:105E6000014488420CD2421E0139002012F8013F41
:105E700003F0C003802B18BF01308A42F6D170476F
:105E8000002070477F289DBF024B185CC0F3400084
:105E9000002070474CAA05087F289DBF024B185C64
:105EA000C0F3C000002070474CAA05087F289DBFA2
:105EB000024B185CC0F38000002070474CAA050814
:105EC0007F289DBF024B185CC0F3801000207047F4
:105ED0004CAA05087F280AD8074B1B5C13F00C0F4F
:105EE00007D1A0F15F00B0FA80F0400970470020B0
:105EF00070470120704700BF4CAA05087F289DBF4E
:105F0000024B185CC0F30010002070474CAA050833
:105F10007F289DBF024B185CC0F3401000207047E3
:105F20004CAA05087F2804D8024B1B5CDB0648BF3F
:105F3000203070474CAA05087F2804D8024B1B5C10
:105F40009B0648BF203870474CAA050830380928FE
:105F500084BF20F020000738704700BF014488420A
:105F600039D210B40022E52408E003F0C003802BEE
:105F70002DD10130531E8142DAB222D90378002A92
:105F8000F3D1BF2B11D81A0621D4421C914208D953
:105F9000104612F8013BBF2B07D81B0617D48A42C4
:105FA000F6D101205DF8044B7047F72B0FD8DB08C2
:105FB00003F00603013044FA03F3814203F00302C5
:105FC000DCD8B2FA82F040095DF8044B704700203B
:105FD0005DF8044B70470120704700BF70B41D0985
:105FE00095421CD20446501B03F00F0301EB450100
:105FF000064606E051F8024BDC4025F8024C013E13
:106000002C46012E04F10205F4D10A8822FA03F38A
:10601000238035F8023C03B9013870BC704700207A
:1060200070BC70472DE9F043079F8446D21BA7B38D
:10603000023BA1F102083E468646002538F8024F91
:1060400033F8029F4C442C44013E2EF8024B4FEA99
:106050001445F3D17F00384439446AB102391346FC
:10606000064631F8024F013B2C4426F8024B4FEA1A
:106070001445F6D100EB42004DB1012320F8023B5C
:10608000A0EB0C0040FA03F21046BDE8F083A0EB51
:106090000C0042101046BDE8F083002AF4D03D46C3
:1060A000DCE700BF2DE9F041069D521BBDB3023B6A
:1060B000A1F1020E2F46844600263EF8024F33F827
:1060C000028F3444A4EB0804013F2CF8024B4FEA42
:1060D0002446F2D16B00194403446AB102391546D3
:1060E0001F4631F8024F013D344427F8024B4FEA76
:1060F0002446F6D103EB42039A1E90420AD833F8A5
:10610000021C39B9043B02E01988023B11B99842DC
:106110001A46F9D90232101A4010BDE8F0812E4615
:106120000346DAE738B50229836838BF02210D46F5
:106130001BB10268B1EB920F09D9044669001846F9
:10614000FDF7D0FF2368A06065F39F03236038BD8F
:1061500038B5002105460C20FDF7A2FF2A78037808
:1061600062F300036FF34103044603702868236859
:10617000C0F39D0060F39F0323606B6863600021A0
:106180004000FDF78DFFA0602A68A968C2F39D0258
:10619000520046F0EDFB204638BD00BF4B001844CE
:1061A0001A4411B310B430F8023C32F8024C1B1BF5
:1061B000002BA0F10200A2F1020209DB0DD101398E
:1061C0000FD030F8023D32F8024D1B1B002BF5DAE0
:1061D0004FF0FF305DF8044B704701205DF8044B31
:1061E000704708465DF8044B70470846704700BF8B
:1061F00010B504468068FDF783FF2046BDE81040D7
:10620000FDF77EBF38B505460C460221FFF78AFF31
:106210002B78002CB4BF43F001036FF300032B7005
:10622000B8BF644200236B600CB907E06B68AA68D2
:10623000581C686022F81340240CF7D138BD00BF09
:106240002DE9F04F87B0814202910546019279D045
:10625000019B98427ED000230393029C019E6168BB
:10626000736828461944FFF75DFF2A68A868C2F3DF
:106270009D020021520046F0BFFBD6F80490A968A9
:10628000A36804910093D4F804A0D6F80880B9F16B
:10629000000F34D0CAEBCA735F00BE1E01EB4A0B7D
:1062A000059507EB0B04BAF1000F3ED0DDF800E0D6
:1062B00006EB0B0C544600233EF8022BB8F8000006
:1062C0003CF8021F00FB02121344013CACF8003002
:1062D0004FEA1343F0D15C46A51C13B1ABF8003074
:1062E0002C461BF037FEB9F1010908F10208AB4654
:1062F000D7D1DDE90435A4EB03094FEA6909029B14
:10630000019AC5F804901B781278534013F00103EA
:106310000ED12A7863F30002039B2A707BB11846E2
:1063200007B0BDE8F04FFFF763BF0BF10205D8E7F8
:106330002B7843F001032B70039B002BEFD107B0A8
:10634000BDE8F08FFFF704FF019B02909D4206D04D
:10635000039082E7FFF7FCFE019003907DE7029B2C
:106360000393019379E700BF0023C0E90033836002
:10637000704700BF0022C0E90022826001B9704767
:10638000FFF740BF70B40578816005F0FE0545F069
:10639000020505700168002662F39F0146600160F6
:1063A0000BB970BC7047194670BCFFF72BBF00BF1C
:1063B00010B103789B0700D570478068FDF7A0BE39
:1063C00038B505460C464968FFF7ACFE22782B78B5
:1063D000A86862F300032B7063686B60D4E9012145
:1063E000BDE83840520046F0C3BA00BFF8B59DF88A
:1063F000185016461F4604210446FFF793FE304608
:1064000039461DB1002E77F100031ADB23786FF3B4
:1064100000030022237056EA0703626010D00022B6
:1064200000E06268A568561C030C43EA01436660FD
:1064300025F812000A0C1846114650EA0103F0D163
:10644000F8BD2378704243F0010367EB47012370E6
:10645000E5E700BF2DE9F04110EE104A0178E30FA7
:1064600063F30001C4F30F4313F4FF4306460170C6
:106470002BD0B3F5FF4F28D0C4F3C755A5F17F0348
:10648000002B22DB25D0B5F16F0148BFA5F16001DB
:10649000C4F31604162B44F400044FEA21171DDC44
:1064A000C3F117033946DC40FFF73CFE7760002359
:1064B0009F420CD05B007900B268D45202339942FB
:1064C0004FEA1444F8D1BDE8F08100237360BDE8C1
:1064D000F0810121BDE8F041FFF794BE093303F0DC
:1064E0000F08B5F1960348BFA5F187031D11394682
:1064F000FFF718FE776025B16A000021B06846F00A
:106500007BFAB8F1000F0AD0B36804FA08F2C8F1B8
:10651000100823F8152024FA08F46B1CC8E72B4652
:10652000C6E700BF2DE9F843C2F35B05064688467F
:106530001C46691C08EB0207DDF82090FFF7F2FD0E
:106540003378002C43D043F0010333700020B8456A
:1065500070602CD240461FFA89FC0378A3F1300406
:10656000092C00F1010E05D9A3F14102192A20D806
:10657000A3F137044C4524D2D6E901502DB3294666
:106580000246138801390CFB034322F8023B4FEA11
:106590001344F6D100EB45050CB12C8002352D1AC1
:1065A0006D10774575607046D7D1A7EB0800BDE840
:1065B000F883A3F16102192A03D8A3F157044C45CB
:1065C000DAD3A0EB0800BDE8F8830546E4E764F3FE
:1065D00000033370BAE700BF2DE9F04106461546C7
:1065E0001F46002946D0531E1F444FF0FF38E900D4
:1065F0000F3109093046FFF795FD327800236FF31C
:10660000000232707360002D37D018460F2828DC46
:106610003978814004E00F2824DC3C788440214311
:10662000013D89B200F108004744F4D1B268581C1A
:10663000706022F81310716849000239B06842187E
:1066400009D2435A3BB9931E02E01988023B11B9A3
:1066500098421A46F9D9931C1B1A5B107360BDE867
:10666000F0810021B2685C1C746022F813101038AD
:106670007368CBE74FF00108B9E76FF00101DDE780
:1066800038B5446802460CB9486878B10B7815787B
:1066900003F0010305F00100181A07D14B689C4272
:1066A00005D30AD90120EB0748BF404238BD4FF05F
:1066B000FF30EB0748BF404238BD10468A6880680B
:1066C0002146FFF76BFDF4E7884210B5044601D080
:1066D000FFF776FE23786FF30003237010BD00BF31
:1066E000884210B5044601D0FFF76AFE2378C3F351
:1066F0000002C2F1010262F30003237010BD00BF6B
:1067000030B5884285B0044601D0FFF759FE626873
:106710003AB32178CB0714D42046511CFFF702FD71
:10672000D4E9012104AB012023F8020D00900846B2
:10673000FFF778FC2378606043F00103237005B015
:1067400030BD04AB0846A16801256FF3000023F8B3
:10675000025D009520700846FFF7A4FC606005B05C
:1067600030BD01212046FFF7DDFCA36801221A801D
:10677000237862601343237005B030BD2DE9F84FD4
:106780004B68064603B122B93046BDE8F84FFFF723
:1067900017BE02F10F094FEA19190D4603EB090163
:1067A0001446FFF7BFFCD5E901A014F00F026FF00B
:1067B000004309EB0A0404EB0308B16853444FEAB1
:1067C000480718BFC2F110025B0001EB070EBAF1D7
:1067D000000F19D0023318445146F4464FF0000B15
:1067E00030F8023D43EA0B0323FA02FB01392CF88F
:1067F00002B94FEA034BF3D1CAEBCA7A2BFA02F380
:106800000EEB4A0E1FFA83FAC9EBC9730EEB430372
:1068100009F10049023309F1FF391846AEF800A02A
:106820004FEA4902002146F0E7F803464CB130F840
:1068300018203B441AB104E033F8022D0AB9013C98
:10684000FAD174602A78337862F300033370BDE8BC
:10685000F88F00BFF0B50C46496885B0054609B110
:1068600016462AB921462846FFF7AAFD05B0F0BD15
:10687000FFF758FC3346D4E90121A868FFF7AEFBC7
:10688000686022782B7862F300032B70DB07EDD56C
:10689000D4F804C00023ADF80E303209BCF1000F6B
:1068A000E4D072B1D4F808E0BEF8003071462BB1E4
:1068B0001FE09A4205D031F8027FD7B901339C45D9
:1068C000F7D19445D2D9D4F808E03EF8122006F06A
:1068D0000F06012303FA06F6013E32420FD1BDF83E
:1068E0000E30002BC2D0A968012358B90B806B6011
:1068F000BCE701239445ADF80E30E6D8F3E7ADF8D8
:106900000E30F0E70246009308460DF10E03FFF744
:1069100089FB6860AAE700BF2DE9F041D1F8048047
:106920005768B84582B00D461446064604D31DD9B3
:10693000234647462C461D4623782A785340DB07DA
:1069400020D539463046FFF7EDFBAB686D68B0687F
:10695000D4E901210095FFF7A5FB70602278337818
:1069600062F30003337002B0BDE8F081886892687A
:106970004146FFF713FC0028DEDB234647462C4642
:106980001D46D9E7791C3046FFF7CCFBAB686D6834
:10699000B068D4E901210095FFF744FB7060DDE7A2
:1069A0002DE9F0414F68D2F80480474582B00D468A
:1069B000144606460DD305D92346B8462C46002773
:1069C0001D4607E0886892683946FFF7E7FB002814
:1069D000F2DA012723782A785340DB0718D508F12B
:1069E00001013046FFF79EFBAB686D68B068D4E9E3
:1069F00001210095FFF716FB70602378327803F0D1
:106A00000103C7B963F30002327002B0BDE8F08140
:106A100041463046FFF786FBAB686D68B068D4E945
:106A200001210095FFF73EFB70602378327803F078
:106A30000103002FE6D0C3F1010363F300023270BB
:106A400002B0BDE8F08100BF2DE9F04F91464B68E0
:106A5000526885B093428846019002D2C8461346D8
:106A6000894698F80020019DD00756BF99F800107C
:106A7000012101F0010119442846FFF753FBD8E931
:106A8000011798F8003099F80040029183EA040158
:106A9000C907AA68D9E9016B60D413F0010304F0B7
:106AA000010462D001210B464FF6FF70029DC3F135
:106AB000000AC4F1000E1FFA8AFA1FFA8EFE002D9A
:106AC00056D0023F9446039237F8022F013E013D13
:106AD0008AEA0202AE42134496BFBBF80020724617
:106AE0008EEA0202144403EA040282EA000211FA66
:106AF00082F12CF8021B98BF0BF1020B090C240C3D
:106B00001B0C002DE0D1DDE9023202EB430311B191
:106B1000012119800233991E8A420AD833F8020CE7
:106B200038B9043B02E01888023B10B99A42194672
:106B3000F9D9023101988A1A5210426098F800304F
:106B400099F800200178C2F30002C3F30003134058
:106B500063F30001017005B0BDE8F08F002103F080
:106B6000010304F001040846A0E7194618469DE712
:106B70001346CCE72DE9F04F91464B68526885B03B
:106B800093428846019002D2C8461346894698F837
:106B90000020019CD00756BF99F80010012101F098
:106BA000010119442046FFF7BDFAD8E9011798F80A
:106BB00000300291D907A268D9E9016B0AD499F88B
:106BC000001001F0010411F0010103F0010307D1ED
:106BD000084608E099F8004003F0010304F00104BE
:106BE00001214FF6FF70029DC3F1000EC4F1000AAF
:106BF0001FFA8EFE1FFA8AFA002D48D0023F9446F3
:106C0000039237F8022F013E013D8EEA0202AE42A6
:106C1000134496BFBBF8002052468AEA020214448D
:106C200043EA040282EA000211FA82F12CF8021B04
:106C300098BF0BF1020B090C240C1B0C002DE0D1AA
:106C4000DDE9023202EB4303991E8A420AD833F887
:106C5000020C38B9043B02E01888023B10B99A4292
:106C60001946F9D9023101988A1A5210426098F8EF
:106C7000003099F800200178C2F30002C3F300034A
:106C8000134363F30001017005B0BDE8F08F1346B4
:106C9000DAE700BF2DE9F04F90464B685268934207
:106CA00083B00F46814602D24746134688463A785B
:106CB000D20756BF98F80010012101F001011944D4
:106CC0004846FFF72FFA3B7898F800107A6801924F
:106CD00083EA0100DB43C9431446D9F808C0BE6803
:106CE000D8E9015E00F0010003F0010301F00101A9
:106CF000002A4BD0023E62464FF6FF7A36F802BFBA
:106D0000013D013CD344A5425B4496BFBEF800B0B0
:106D10004FF6FF7BD344594483EA010B10FA8BF002
:106D200022F8020B98BF0EF1020E000C090C1B0C8E
:106D3000002CE3D1019B0CEB430310B101221A801C
:106D400002339A1E94450AD833F8021C39B9043B21
:106D500002E01988023B11B99C451A46F9D9023262
:106D6000A2EB0C025210C9F804203B7898F80020DE
:106D700099F80010C2F30002C3F30003534063F319
:106D8000000189F8001003B0BDE8F08F6346D4E736
:106D900030B44B68044623B1536813B130BCFFF7DD
:106DA0004FBA0023636030BC704700BFF8B54B6832
:106DB000054673B3137813F001062AD153685BB309
:106DC00008461446FFF7C4F907462046FFF7C0F906
:106DD000012104462846FFF715FA62680AB3A16844
:106DE0000B88DB0706D56B680BB17B6813BB6E6045
:106DF000D4E9012101230846FFF7F0F8606080B173
:106E00007B68002BE9D03A4639463846FFF718FA36
:106E1000E3E700236B60F8BD0121BDE8F840FFF710
:106E2000F1B917B13846FFF7E3F92046BDE8F8405D
:106E3000FFF7DEB93A4629462846FFF701FAD4E9BA
:106E40000121D7E72DE9F04F0F4651688FB0144666
:106E500001311E460546089207930590FFF762F937
:106E60006368A86801335A00002145F0C5FD00237E
:106E70006B60616838460131FFF754F921463846A6
:106E8000FFF79EFA73687C680193A34215D9059AAF
:106E900000235360089B079A1B7812785340DB0746
:106EA00008D5059A137843F0010313707B68002B13
:106EB00040F008810FB0BDE8F08FB268B868AE68E6
:106EC00006900292099680F0F580019B03F1004044
:106ED000013843000393029B33F8103019044FF03C
:106EE000000E07D45B009BB20EF1010E1A041FFACC
:106EF0008EFEF7D5069B002223F814207968013115
:106F00001C4603EB41039C4279600FD2CEF1100581
:106F1000A446238803FA0EF10A4324F8022B796869
:106F20000CEB4106EB40B4429AB2F2D3029A32F82B
:106F3000103003FA0EF0019B0490012B08D9039B3B
:106F4000D318CEF1100233F8023CD340184304901A
:106F5000019C059B0A1B6FF000405A6001440244EB
:106F600009987B6800EB42020092069A9C4202EB71
:106F7000410A5AD2029BA3F1020B5646BAF800808E
:106F8000039B3AF802CDAAEB03094E45049B4CEA59
:106F9000084CBCFBF3FC4FF000031ED9029A1C46C0
:106FA000951E484635F8022F018802FA0EF242EA91
:106FB0001444A2B20CFB02F21FFA82F811FA83F118
:106FC000A1EB080120F8021B120CC2EB2342B042D5
:106FD00002EB2143E6D3BAF8028013EB08081AD07B
:106FE0004E4564D9002318465C46494634F8025F92
:106FF0000A8805FA0EF545EA104012FA80F21344A9
:1070000021F8023BB1424FEA1343EFD313EB0808D8
:107010000CF1FF3CE4D1009B019A23F802C90093D4
:107020007B68013B9A427B60A7D3069D03F1004336
:10703000013B05EB430085420CD8CEF11004002241
:10704000038843FA0EF10A4320F80229A34085423F
:107050009AB2F5D9059B5B688BB103F10041013908
:10706000099800EB410230F8111041B9059802E08F
:1070700032F8021D19B9013B4360002BF8D17B683F
:10708000002B3FF407AF03F100410139069800EBF4
:10709000410230F8111029B1FCE632F8021D002936
:1070A0007FF4F8AE013B7B60002BF6D1F2E60CF1E9
:1070B000FF3C95E72146FFF771F8002818D0BFF68E
:1070C00004AFE4E600230BA84FF0FF31CDE90B330A
:1070D0000D93FFF797F805990BAA0846FFF71CFCDC
:1070E000079A39463846FFF717FC0FB0BDE8F08F16
:1070F0000123786033806B60CCE600BF2DE9F0415E
:107100004C6884B014B11478E40704D500234360BC
:1071100004B0BDE8F0815C68012C03D19C68248830
:10712000012CF3D015460C4601211F460646FFF7F9
:1071300069F86B68002BEBD02046FFF709F804468E
:107140002846FFF705F80023CDE902334268019392
:10715000054652B3984607E022463B46214601A821
:10716000FFF770FE6A6802B3A9680B88D8070DD5CF
:1071700073680BB1636853BBC6F80480324631466E
:107180003B4601A8FFF75EFED5E901210123084631
:10719000FEF724FF686040B16368002BDCD0224614
:1071A00021462046FFF74CF8D6E79DF804309B07B0
:1071B00007D514B12046FFF71BF82846FFF718F84B
:1071C000A6E70398FCF79CFF002CF3D1F5E72246D5
:1071D00031463046FFF734F8D0E700BFD0E901125E
:1071E00002EB41018A4217D28B1EC2F1010210B498
:1071F0001A4422F00102891A0439002233F80249A4
:107200008B4244EA0242F9D103785DF8044BD90776
:1072100048BF52421046704703780022DB0748BF40
:1072200052421046704700BF30B4D0E9013505EB3B
:1072300043039D424FF0000203D308E0B2F5004F34
:107240000DD233F8024D9D4244EA0242F6D3037850
:10725000DB0748BF524201200A6030BC7047002063
:1072600030BC70472DE9F04F83B0D0E901AB0192FB
:10727000002945D09E18BAF1000F3BD0019A002793
:10728000BC46012503EB02093BF8022B0CF1100C64
:1072900042EA07470BE0A34206F8012C2DD0ACF1DF
:1072A000080CBCF1070F26464FEA17271DDD90F8A2
:1072B0000080BAB218F0010F06F1010E06F1FF349A
:1072C0006FEA020803D055FA88F292B2150AD2B2D8
:1072D0000029E0D1CE4532700FD0ACF1080CBCF1E2
:1072E000070F76464FEA1727E1DCBAF1010ACBD146
:1072F000324659B1F21A1E460BE003B0BDE8F08FDA
:107300001E46BAF1000FB9D11A461E4601990B4428
:107310009A1A037813F0010F304614BFFF210021A1
:1073200003B0BDE8F04F45F067BB00BFD0E90121D5
:1073300001EB42029142A2F102031CD2C1F1010110
:10734000194421F00101521A9FED0C0A9FED0C7AAD
:10735000043A33F8021907EE901AF8EEE77A9342EE
:10736000E0EE077AB0EE670AF3D10378DB0748BF97
:10737000B1EE400A70479FED010AF6E700000000F9
:10738000000080472DE9F84F45689DF82870ADB999
:10739000002A00F0928013780B992BB101F8013B81
:1073A00012F8013F002BF9D10846302200230A7061
:1073B00000F8013F0B9BC01ABDE8F88F4FEA450B60
:1073C00080460C46584600219A469146FCF768FED6
:1073D0005A460546D8F8081045F0CAFA05EB0B01E5
:1073E000881EDDF82CC08542AAF13A0E624662D8AA
:1073F00082460023BAF800B04BEA0343B3FBF4FB28
:107400002AF802B9554504FB1B33F3D93033392B25
:1074100088BF7344DBB28D42137002F1010A0CD2B3
:107420002B88002B43D1AB1C04E0BBF80060023377
:10743000002E3CD199429B46F7D83FB1AAEB0C0CE9
:10744000BCF1030F02D1577002F1020A2846FCF783
:1074500057FEB9F1000F11D0484645F003FB4844F0
:1074600081450BD20AF1FF32034613F8011D02F8E1
:10747000011F9945F9D1A0EB0900824498F800302A
:10748000DB071CD40B9A0AF1FF339A4207D211781A
:10749000187802F8010B03F801199342F7D800237A
:1074A0000B9A8AF80030AAEB0200BDE8F88F67B9A2
:1074B000524685429CD93023ADE70B9974E72D23C2
:1074C0008AF800300AF1010ADCE7AAEB0C03032B6F
:1074D000EED102F1020A5770D4465246E9E700BFE6
:1074E000D0E9023293423DBF5A1C826018784FF0B7
:1074F000FF30704710B50368044613B14068FCF7CD
:10750000FFFD2046BDE81040FCF7FABDF8B5044683
:107510000D461020002116461F46FCF7C1FD054907
:1075200007602E44C660C0E90155C4E90001024A63
:10753000A260F8BDE1740008F57400080269272A0A
:107540002ED0222A2CD0A2F16201132938D8234B45
:10755000CB40DB4313F0010332D1416927291FD00F
:1075600022291DD0722A1ED0662A31D1722918D143
:1075700010B48469272C26D0222C24D0722A0BD058
:10758000622A09D1722907D18369272B1BD0A3F165
:107590002203B3FA83F35B0918465DF8044B704786
:1075A0000123184670476629E2D06229F9D1836920
:1075B000272BF5D0A3F12203B3FA83F35B09F0E79D
:1075C000002318467047012318465DF8044B7047A6
:1075D000622AE6D17229E4D1E9E700BF110009006F
:1075E00038B502690A2A044628D0C36A092A04BFAA
:1075F000073323F007030133C362D4E90523216F66
:10760000C4E9042331BBD4E9010398476369A0614D
:107610000D2B0AD0013000D038BD63695A1CFBD055
:107620000A2B1CBF0A23A36138BD0A239842636159
:10763000F2D1D4E901039847A061EBE7836A012204
:107640001344C0E90A32D4E90523216FC4E90423B5
:107650000029D8D0606E814207D24D1CA06E2567EC
:10766000415CA16122B1A069D2E70021A161F9E7E3
:10767000D4E90713606A62662267C4E90413A06153
:10768000C6E700BF70B5044600690E460025431CDE
:1076900012D00A2808D10EB1636B6BB12046FFF7F8
:1076A0009FFF01252069F2E7FEF7ECFBA8B92369EB
:1076B000232B03D05C2B0AD0284670BD2046FFF751
:1076C0008FFF23695A1CF7D00A2BF7D1E3E76369D0
:1076D0000A2BF1D12046FFF783FF2046FFF780FFFA
:1076E0002069D4E72DE9F04F436E83B004461BB107
:1076F000036F002B00F01481002161652046FFF725
:10770000C1FF236BD4E90A21002BC4E91121C0F287
:10771000FF8007D0013B0722236384F84C2003B08D
:10772000BDE8F08F10B3636B03BBD4E90F2002F107
:107730000043013B062584F84C5030F813604D1E81
:10774000B54200EB4303EAD000F204830AD2511E93
:10775000881AE163206333F8020D854201F1FF319D
:10776000F6D3DCD0022384F84C30D8E7D4F810905C
:10777000B9F1FF3F00F0E8802046FFF7DFFE0190FF
:10778000002800F03A820023B9F1750F84F84C30DC
:1077900000F0A480B9F1620F00F0F981B9F1720F25
:1077A00000F0FF81B9F1660F00F018820025AA46AB
:1077B00000950C2294F84C30002B40F09A8084F80D
:1077C0004C20002D40F09B80B9F1220F204618BFBD
:1077D0004FF02709FFF704FF23694B4500F0CA81EA
:1077E0004FF00108BAF1000F04D06A4904F16000BB
:1077F000FDF73EFE23695A1C4FF0000618BF04F146
:10780000600553D0B8F1010F00F0B980B04550D9F0
:10781000994500F0B8801F46BAF1000F35D07B2B98
:1078200008BF04F1500630D12046FFF7D9FE216988
:107830007B2900F09D804B1C676E00F089803A29FF
:1078400000F086807D2900F08380C9B22846FDF7CC
:10785000ABFD2046FFF7C4FE21694B1C03D03A293B
:1078600001D07D29F1D1626EA16E8B1813F8013C15
:107870003D2B74D02C212846FDF796FD7B21304608
:10788000FDF792FD27697B2FCED05C2F00F084801E
:10789000F9B204F15000FDF787FD00262046FFF7FE
:1078A0009FFE2369581CADD1B04502D9032384F84B
:1078B0004C30314604F15000FDF7F4FD0121204623
:1078C000FFF7E0FE2046FFF739FE00283FF427AF20
:1078D000D4F81090B9F1750F7FF45CAF94F84C3088
:1078E0004FF0000ACDF800A001250C22002B3FF438
:1078F00066AF93427FF413AF002D3FF465AF20468F
:10790000FFF76EFE022D00F07481D4F810905BE753
:1079100001330822236384F84C2003B0BDE8F08FC4
:1079200029216030FDF740FDD4E90401C4E90701D5
:10793000A269A36E62621A7822615A7862619B78AA
:10794000A36103232367D7E6002384F84C30E6E6DF
:10795000A16E3A468B1813F8013C3D2B8AD1D21BFD
:1079600039443046FDF73AFC636E013B636681E7BC
:107970003046FDF719FD2046FFF732FE7EE70A2B61
:107980007FF444AF90E7494604F150000136FDF71B
:1079900017FD83E71CAB05082046FFF721FE009B7F
:1079A0002669002B40F0E080A6F10A036E2B00F25E
:1079B000BA80DFE813F06F00B800B800B800B80074
:1079C000B800B800B800B800B800B800B800B800F7
:1079D000B800B800B800B800B800B800B800B800E7
:1079E000B800B800B800DF01B800B800B800B800AF
:1079F000DF01B800B800B800B800B800B800B8009F
:107A0000B800B800B800B800B800B800B800B800B6
:107A1000B800B800B800B800B800B800B800B800A6
:107A2000B800B800B800B800B800B800B800B80096
:107A3000B800B800B800B800B800B800B800E80155
:107A4000B800B800B800B800B800B8008F00B8009F
:107A5000B800B800B800B800B800DF01B800B8003E
:107A6000B800B8008D00B400B800B800B800B2008B
:107A7000B800B800B800B800B800B800B8008B0073
:107A8000B800B800B8007E00B80071008F00B600E2
:107A9000B800B000002601E7092694F84C300C2B02
:107AA0000DD00D2B00F08A80012384F84C30002685
:107AB000F4E694F84C300C2B4FF00D06F1D1314622
:107AC00004F15000FDF77CFC0026E7E60A26E4E717
:107AD0000726E2E794F84C300D2B00F04681752E16
:107AE00014BF072703270026A34608E02046FEF719
:107AF0002DFA360106447B1E002F6DD01F465846D6
:107B0000FFF76EFDDBF810402046FEF7D9F900289C
:107B1000ECD15C46C8E70127E5E70C26BDE708265F
:107B2000BBE70B26B9E7A6F13007072F1CD863691E
:107B3000303B072B00F2B1812046FFF751FDD4E91D
:107B40000423303B303A072B02EBC70606D8204609
:107B5000FFF746FD2369303B03EBC606771C99D03F
:107B6000B74B9E42A0D805E15C2104F15000FDF71F
:107B700027FCF3E763694B457FF432AE2046FFF7FD
:107B80002FFD2046FFF72CFD4FF003082AE663691E
:107B9000722B1AD04FF0000ACDF800A001250D225B
:107BA00008E66369622B10D0662B00F07281019B9E
:107BB000009301250C224FF0000AFBE5F1B204F11D
:107BC0005000FDF7F1FB002668E6019B00930225BB
:107BD0000D224FF0000AEDE55C46BFE76369722BAA
:107BE00000F057810023DDF804A0009301250C224A
:107BF000E0E52046FFF7F4FC87E64846FEF74CF93F
:107C0000054620691DBB5F2821D07F281FD8FEF7BD
:107C10004DF900285FD127692E2F00F00981282F08
:107C200000F0E780874D002628230CE0632B0CD062
:107C30006B78002B00F04181BB4206F1010605F193
:107C4000010500F02C81652BF0D10135F0E7092307
:107C500004F15005C1B284F84C302846FDF7A4FB6E
:107C60002046FFF7BDFC2069411C0DD0FEF714F93A
:107C700038B920695F2805D07F2803D8FEF716F9A8
:107C800010B12069C1B2E8E72846FDF779FB6E4ED6
:107C90006E490746002507E0FFF641AD0135242D6A
:107CA0003FF43DAD56F8041F384644F0E5FE002889
:107CB000F2D105F10F03DBB2122B84F84C307FF4C4
:107CC0002EAD634BD3F82831002B14BF0F231123A3
:107CD00084F84C3023E521692E2900F084800A23A2
:107CE000302984F84C3070D004F150063046FDF74E
:107CF00067FB2046FFF774FC0B27216912E008465A
:107D0000FEF7CAF8002850D021692E294AD021F068
:107D100020034A2B46D03046FDF752FB2046FFF7A2
:107D20005FFC21694A1C3FF4FAAC002DE7D121F039
:107D30002003452BE3D16521304684F84C70FDF7D4
:107D40003FFB2046FFF74CFC21692B29E3D02D296E
:107D5000E8D1E0E7A36B9A421AD2531CE36320F800
:107D60001250236B01332363D9E45C2104F15000EA
:107D7000FDF726FB94F84C300C2B3FF4A0AEFF2E01
:107D80007FF68FAE90E633481AF0E4F907F0AEF9CB
:107D900008335900FCF7A6F9D4E90E320833206401
:107DA000A363DAE784F84C70B5E72069FEF77EF844
:107DB0000028A9D121692E29F4D05F297FF4AFAC26
:107DC0002046FFF70DFC2169ACE7636943F020030F
:107DD000623B162B0BD8204DDD40ED4305F001052D
:107DE00085F0010580E70B2384F84C307CE7012502
:107DF000F6E72046FFF7F4FB124D00260335771C0B
:107E000008E0652B2ED115F8013C22699A4225D055
:107E10000235013715F8023C632BF2D115F8013C0D
:107E200022699A421ED12046FFF7DAFB3E46EFE771
:107E30006069FEF73BF800287FF44DAF2769EEE656
:107E4000FFFF1000D4AA050834AC0508CCAA050829
:107E50007C3C002028AB05080120400020463E461F
:107E6000FFF7BEFB244B9B5D84F84C3003F0FD0212
:107E7000552A0AD0592B08D0562B02D0582A7FF405
:107E80004EAC636B013B636349E4636B0133636333
:107E900045E4052384F84C3041E43E4660E6204644
:107EA000FFF79EFB212F1CD02E2FA7D123692E2B4D
:107EB0000AD05D2384F84C3031E42046FFF790FB74
:107EC000012384F84C302AE463692E2BF1D120463B
:107ED000FFF786FB2046FFF783FB0E2384F84C3028
:107EE0001DE423693D2BEBD12046FFF779FB3A23B4
:107EF00084F84C3013E400BF08AC050870B584B0BA
:107F000001AD85E80E00064600217420FCF7C8F894
:107F10000446034695E8070043F8046B002583E810
:107F200007006FF001060A220123A263A362E36344
:107F30002946E662C4E90C551420FCF7B1F820216B
:107F4000206404F15000FDF773F9294604F1600044
:107F5000FDF76EF9236C20461D80C4E905552561A7
:107F6000FFF73EFB2046FFF73BFB2046FFF738FBC1
:107F70002046FFF7B7FBA36C012B18BF0723204651
:107F800018BF84F84C3004B070BD00BF30B585B068
:107F900001AC05462046FFF7B9FA284694E80E00E2
:107FA000FFF7ACFF05B030BD30B585B001AC014680
:107FB0000546204617F00EFE2846FDF7A1F894E886
:107FC0000E00FFF79BFF05B030BD00BFA0B110B59C
:107FD0000446C3684068984704F15000FDF774F9FF
:107FE00004F16000FDF770F9206CFCF789F8204679
:107FF000BDE81040FCF784B8704700BF38B50D46A7
:10800000D0E903138B420446406908D3103189003C
:10801000FCF768F8D4E9032310326061E2605A1C6F
:10802000226140F8235038BD2DE9F0410E46D0E9D9
:1080300000158D42044617468068984608D31031D3
:10804000C900FCF74FF8D4E900351033A060236075
:108050006B1C636050F8354000EBC50166F31704F4
:1080600040F83540CF70C1F80480BDE8F08100BF12
:10807000F8B50C680E46154634B3D4E900139A18C7
:108080008A4204D804F1080062601844F8BD29440B
:108090000746083100222046FCF730F848B1D4E901
:1080A00000232A442260EA1804F1080062601844A0
:1080B000F8BD6168024608312046FCF71FF8636886
:1080C00023603B6863603C60102D2F4638BF10274B
:1080D00007F108000021FBF7E3FF0023C0E900736C
:1080E000306043680446EA1804F1080062601844EE
:1080F000F8BD00BF70B586690C4696F84C1009298A
:1081000082B0054610D00A292ED00B295BD0A1F1F0
:108110000C03012B18D9090141F00E01284602B0C9
:10812000BDE87040FFF76ABFD6E91510FCF724FFE1
:10813000902C4FEA001452D044F00201284602B0BD
:10814000BDE87040FFF75ABFD6E915100A2943D899
:10815000FCF712FF96F84C30B8B10C2B14BF0A2173
:10816000062141EA0011D9E733460022D6E915106D
:1081700005F062F8C307044611D544F00101284612
:1081800002B0BDE87040FFF739BF1B4C1B48D6E971
:1081900015210C2B18BF20460DF00CFF044605F1ED
:1081A00024010C2205F12000766CFFF761FF4FF4EB
:1081B0009D730660C0E901340146284602B0BDE85F
:1081C0007040FFF71BBFD6E915100023009601226F
:1081D00005F0D6F80446E2E7FCF786FEBAE744F07D
:1081E0000601002205F1280007F05EFA0028A3D05E
:1081F0004468E207D3D5C0E77CDC050860DF0508EA
:10820000FE2809D010F0010304D043080CBF012060
:10821000002070471846704701207047B0F58F7FE7
:1082200009D010F0010304D0430814BF012000203E
:108230007047184670470120704700BF10F00103D7
:1082400008D130B110F0030209D103793A2B08D0DC
:108250001046704740F00100086001207047184642
:10826000704783680B6013F0010008D19A07F0D1C2
:108270001868044BC01AB0FA80F04009704701201A
:10828000704700BFF8CE05082DE9F04F2D2A87B0C2
:10829000154604460E461F467ED1D0E9043203F14E
:1082A0008043013B52F82330002B6DD1A5F126030A
:1082B000022B40F24C81292D00F09781052D40F0D2
:1082C000F781D4E9043203F18043013B990052F86D
:1082D0002380B8F1000F00F0138118F0030F40F075
:1082E0000F8198F80430A3F15600012840F208816C
:1082F0000A4452F8042C02F00F01022940F00081D8
:108300002C2B40F0FD80D8F8083003F00F01022933
:1083100040F0F6801B09482B40F0F280D8F80C3072
:10832000002B00F0ED8013F0030B40F0E980197989
:10833000302940F0E580D3F80890019204A948461E
:10834000FFF77CFF019A82461309002800F00082A3
:1083500022F00F0242F0060104F1280001220193ED
:1083600007F0A2F9019B049A42601846FCF7F4FE5C
:1083700003785F2B236900F0E281013B49462361CA
:108380002046FFF73BFEBBE0990702D11B79922BF9
:108390008CD007B0BDE8F08FA2F11E03012B00F2D4
:1083A00091800369781E002F00F067816FF04048CC
:1083B000A8EB00021A44D4F814C0DB1B5CF82210AE
:1083C0004CF823100028E4D01E2DBE4603466ED084
:1083D000FE2903D0CA0754D54A0857D11A46FF1AB6
:1083E0003BB12369591E0023C81A01339A42FBD8B6
:1083F0002061012FCDD0A5F12303022B00F245818E
:10840000D4E9043203F18043DB1B03A952F82300B3
:10841000FFF714FF002873D0232D00F02581242DB1
:1084200014BF4FF018094FF01709B7F1020800F117
:1084300028810DF1100A6FF0404B0BE0039948467C
:1084400006F052FC08F1FF38B8F1FF3F03460390F5
:1084500000F0EB80D4E904325B44A3EB08035146FF
:1084600052F82300FFF7EAFE002849D0B9F1220FA5
:10847000049AE3D110460BF02BFA002840DB049A53
:10848000DCE7B1F58F7F01D09E46013BD4E9042C97
:10849000013802EB0801091AA2EB0E025CF8211068
:1084A0004CF822101A46002899D01E2D90D1B1F513
:1084B0008F7F93D0CA0702D54A08E7D08EE7FE29FE
:1084C000E2D1E3E7202A96D1D0E9043103F18042DA
:1084D000013A51F82220FE2A36D0D0070CD5520896
:1084E00014BFFE214FF48F71013B23612046FFF73B
:1084F00085FD07B0BDE8F08FB2F58F7F00F0B28048
:1085000007F102084FEA880804F12401424604F109
:108510002000FFF7ADFD45EA07250146C0E90065EB
:1085200067B1A8F104020244D4E90435013B236198
:1085300055F8233042F80439013FF5D12046FFF7C2
:108540005DFD07B0BDE8F08F4FF48F71CCE7D4E943
:10855000043203F18043DB1B03A952F82300FFF729
:108560006DFE0028CCD0A7F10208B8F1000F40F34F
:1085700088800DF1100A6FF040490DE00028BFDB44
:108580005846DDE9031206F0AFFBA8F10208B8F186
:10859000000F0346039048DDD4E9043208F1FF31AF
:1085A0004B445B1A514652F82300FFF747FE002860
:1085B000A6D0D4E904324B44A3EB080352F823308D
:1085C000C3F30713432B9BD0452B99D0253B5FFA70
:1085D00083FB04980BF07CF9BBF11A0FCED9BBF1E9
:1085E0001E0FCDD90028CBD18AE7D4E9043203F19C
:1085F0008043013B03A952F82300FFF71FFE002828
:108600003FF47EAFD4E9043203F18043023B039987
:1086100052F82330C3F30713342B1ABF403BD8B2B0
:10862000022005F04FFC0346039003F0010817B148
:108630002269D71B2761B8F1000F18D104F124017A
:108640000C2204F120000193FFF712FD01464FF4C4
:108650009D72019BC0F80080836020464A60FFF74E
:10866000CDFC96E6FE213FE74FF01609DDE643F02C
:1086700001012046FFF7C2FC8BE601274FF0FF32D5
:10868000B0E6039B03F00108D1E72A2D7FF40EAE7C
:10869000D4E9043203F18043DB1B03A952F8230021
:1086A000FFF7CCFD00283FF42BAF4FF02209BCE6CA
:1086B0002C2D7FF425AFD4E9043203F18043023B33
:1086C000980052F8233003F00F0102297FF418AF0D
:1086D0000244D2F804C0BCF1000F3FF411AF1CF00B
:1086E00003027FF40DAF9CF8041032297FF408AF29
:1086F00023F00F0343F006011E48DCF8088006F063
:10870000D3FF00283FF4FCAE4FEA1811406804AADA
:1087100005F060FD049B002B3FF4F2AE13F001085E
:1087200007D19A077FF4ECAE134A196891427FF49F
:10873000E7AE059A002A7FF4E3AE039377E7023BA6
:10874000236120465B4659460822FFF79DFD20E63F
:108750000A4819F0FFFC0146094809F0E7FEA36941
:10876000D8F8002019680546534609F011FF28463D
:10877000FBF770FCC4AC0508F8CE050878AD050819
:1087800088C9050803685BB113F0030F0BD110B45F
:108790001C798C420AD010605DF8044B01207047B0
:1087A00013601846704710600120704703F10801FC
:1087B000116058685DF8044B000A70472DE9F04FCE
:1087C00093B04023002403908846029205931846F4
:1087D000CDE9064404E0059840080128059006D933
:1087E000C0000021FBF76AFC07900028F3D00023AB
:1087F0002020CDE908030A9305E0089840080128E5
:10880000089040F24C8280000021FBF757FC0A9050
:108810000028F2D0079B002B00F04182002319466C
:108820000FA8CDE90D33CDF82C8006F0F1FE029BA8
:10883000002B00F02782022B0CBF3F2200220023D6
:1088400005A8D8F84410DFF85093FFF7EDFB069B1E
:108850004FF0000B002B00F08980079AC94DCA4EDB
:10886000013B02EBC301069352F8330091F803A0D9
:10887000C64A4C6812F80A200092C0F3170201920F
:10888000009A15F80A10BAF1630F02F0300088BFA1
:1088900041F48071102806EB410602F00F0534D038
:1088A000202840F09480BBF1000F00F0CE8004F14E
:1088B0000041013936F8111009EA0101B1F5405FB4
:1088C00000F0BF80012CC5D998F84C10072900F0A2
:1088D000FA81022900F0EE81042900F0E9810529DE
:1088E00000F0E481AA4819F035FC0146A94809F0D6
:1088F0001DFE044620460023D8F84420D8F8001076
:1089000009F046FE2046FBF7A5FB14B1BBF1000FB2
:10891000A0D0A54225D936F814C00CEA09006100A0
:10892000B0F5805F06EB010740F0388198F84C0005
:10893000CCF30B0C604500F0468102310E440DE093
:10894000374636F8022B02EA0901B1F5805F40F0A4
:108950002581C2F30B02824200F035810134AC4222
:10896000EED34FF0010B002B7FF477AF0FA80093ED
:1089700006F074FE0E9868B1009B41681A460831F3
:10898000FBF7BCFB0E9B5A681A60DDE90D235A60A9
:108990000E9B0D9398F84C10002997D1099B002B42
:1089A000A0D00A9B07981B680C93FBF7A9FB0A98B9
:1089B000FBF7A6FB4046FFF709FB0CAB93E803006F
:1089C000039B83E80300184613B0BDE8F08FBBF1AA
:1089D000000F00F0A380022D00F0CA80012C00F0EF
:1089E000998014F0010B04D0032D7FF46DAF4FF08C
:1089F000010B009AD20704F1FF3306D5718809EA0A
:108A00000101B1F5805F08BF6308012B11D1BBF1F3
:108A1000000F0ED1069B1DE7BCF1010F00F017817E
:108A2000009B190604D5002105A8FFF7E7FA0134D9
:108A300023465246019905A8FFF726FC4FF0000B8C
:108A4000E8E7002105A8FFF7D9FAA54235D936F89D
:108A5000143003EA09014FEA440BB1F5805F06EBDD
:108A60000B0740F0A98098F84C10DBB299424ED128
:108A70000BF1020BB34414E001344046FEF732FE22
:108A8000AC421AD05F463BF8023B03EA0902B2F55A
:108A9000805F40F0918098F84C10DBB299427FF4EF
:108AA00015AF0929E8D1514605A8FFF723FB01348A
:108AB0004046FEF717FEAC42E4D1029B002B00F0CB
:108AC0009E80BAF1050F40F0BE80DDE9097007F124
:108AD000804101398C0050F82130002B40F0D980C2
:108AE000044454F8043C9A0700F0CE8003F00F03CE
:108AF000022B00F0CE800023023F01990997082243
:108B000005A8FFF7C1FB4FF0000B069BA2E6002C67
:108B10007FF4DCAE069B4FF0010B9BE604F00103F3
:108B20002B4036F8137007EA0901B1F5805FC7F3EF
:108B30000B0755D198F84C20BA4214D1EBB101344F
:108B40004046FEF7CFFD04F001032B4036F81370CA
:108B500007EA0902B2F5805F40D198F84C20C7F3CC
:108B60000B07BA42EAD0022D04F101047FF436AFBC
:108B7000012CCFD04FF0000B3BE7514605A8FFF783
:108B8000B9FADCE7CCB1050844AE050894AD050898
:108B900068AD050888C9050800F0FFFF631CAB42FB
:108BA0000BD30B9B3A78596C05A80023FFF73CFACE
:108BB0004FF0000B069B4DE6631C5246019905A839
:108BC000FFF732FAEDE7514605A8FFF793FA404662
:108BD000FEF788FD4FF0000B069B3BE6C7F30B0743
:108BE000631C5246019905A8FFF71EFA0B9BFAB2C7
:108BF000596C05A80023FFF717FA069B2AE6002DFB
:108C00004BD0DDE9097007F180410139002406EB02
:108C10004505A44609E00B1B50F823300BB10CF1BD
:108C2000010C0134AE423FF4F7AE35F8023D03EAE1
:108C30000902B2F5805FEED1DBB2092BF2D101342B
:108C40000CF1010CEEE7002DDBD12C46E8E6009B91
:108C50005D067FF5E5AE6CB17B1E191B00EB87004E
:108C60000024099350F8042D013B002A18BF144634
:108C70009942F6D1214605A8FFF7C0F94FF0000B45
:108C8000069BE7E53D22DAE51BB11B793A2B3FF461
:108C900032AF002DBAD12C46C2E6029CC0E60B488A
:108CA00019F058FA01460A4805F03CF809481AE656
:108CB000094818E6094819F04DFA0146084809F034
:108CC00035FC044616E60748F5E700BFD8AC0508B2
:108CD00070C8050848AD050834AD050804AD0508A1
:108CE000E4C70508F0AC0508406838B110B5446821
:108CF000FBF706FA2046002CF9D110BD704700BFE3
:108D00002DE9F04105460E463020002190461F46D1
:108D1000FBF7E6F9072D0446A0F814800570C6603D
:108D200005D0012D03D00A4B5B5DC38202E0B3681E
:108D30001B09E38204F0B0FC0423206167832385D0
:108D400000212020FBF7ACF9E0622046BDE8F0816D
:108D50007CB2050810B50446C06AFBF7D1F920467D
:108D6000BDE81040FBF7CCB92DE9F041468DD0F8B5
:108D70002CC08EB1DCF8043099422CD00CF10803E1
:108D8000002403E053F8045CA94215D00134B44236
:108D90001F4603F10803F5D1038DB34290460C46FC
:108DA00005460CD90CEBC607731C6B8500230CF829
:108DB00036807C607B707B803846BDE8F08106336E
:108DC000D9006046FBF78EF92B8D6E8DE862063375
:108DD00084462B85E6E76746EEE700BF30B4458D55
:108DE000A5B1C06A436899420ED000F10803002281
:108DF00003E053F8044C8C4206D00132AA421846D4
:108E000003F10803F5D1002030BC70472846FBE78A
:108E100030B400E018464368002BFBD1458D9DB16E
:108E2000C06A426891420DD000F1080203E052F896
:108E3000044CA14206D00133AB42104602F10802B5
:108E4000F5D1002030BC70472846FBE7F8B54368F1
:108E5000E3B18C465968C9B15E8DDCF804708EB1FF
:108E6000DD6A6C68A74212D005F10803002203E016
:108E700053F8044CA7420AD00132B2421D4603F116
:108E80000803F5D10B4659680029E5D1F8BD2B78C8
:108E9000033B022BFAD805268CF80060456801E0F8
:108EA00006706D68002221462846FFF75DFF0378B3
:108EB000002BF5D0032BE9D104230370F8BD00BFCC
:108EC00001B970472DE9F04111F0030803D14F6853
:108ED000FCB2944202D0BDE8F04118473F0A0AD0E4
:108EE0001D4606460C1D08F1010854F8041F3046C3
:108EF000A8474745F7D1BDE8F08100BF8968024B1C
:108F00009D22FFF7DDBF00BFBDAA00088968024BA4
:108F10006B22FFF7D5BF00BFC99A000810B5044601
:108F2000084611462268FFF7EBFE636A43600023A0
:108F30008360226A0AB905E01A469368002BFBD1C8
:108F4000906010BD206210BD8968806A0909002206
:108F500003F05ABC8968806A03F010BC10B504465F
:108F60000021006803F01AFD2068102103F088FB3F
:108F700020680121BDE8104003F00EBE10B5044684
:108F80000022806A03F010FC002354F8280F1A46D0
:108F9000194603F0E3FD2046BDE81040FFF7DEBFB1
:108FA00010B44279446A012A07D00B462246806AEF
:108FB00004495DF8044B02F0A3BF20465DF8044B62
:108FC000FFF7D2BEECB6050810B44479426A012C12
:108FD00006D00B46806A05495DF8044B02F090BF4D
:108FE00010465DF8044B02F07DBF00BFF4B60508E3
:108FF00010B44479426A012C06D00B46806A0549B8
:109000005DF8044B02F07CBF10465DF8044B02F0A3
:1090100069BF00BFE4B60508C1B130B5CA0783B067
:1090200005460C4613D48B071BD001F00F03062B0B
:109030004FEA111111D00A2B23D0022B1ED0062982
:1090400009D0C9B2806A03F01BFB04E070474910E5
:10905000806A03F031FB03B030BD806A03F088FB07
:10906000F9E70968806A03F077FA22790F4B2846FE
:1090700053F822302146984703B030BDFFF790FFE8
:10908000E9E74379042B04D0806A0E2103F076FBD4
:10909000E1E7084601A9FCF76FF80199AC6A0DF009
:1090A0005DFD0146204603F069FBD4E704B40508E2
:1090B0002DE9F04F074683B00C461646984613E05C
:1090C0002046FFF7ABF848BBCCB1A30717D16568C2
:1090D000EBB21E2B4FEA152529D01F2B39D0202BA0
:1090E0000BD1A46886F001062046FFF789F8002816
:1090F000E6D0AEB103B0BDE8F08F2D2B0BD02146EA
:109100003846FFF789FFB86A4246314603B0BDE8EA
:10911000F04F03F0B3BBA368002BEAD0002EE9D0D8
:10912000B86A414603B0BDE8F04F03F0A1BB96B169
:10913000002DDFD0043404EB850554F8041F4346AA
:1091400032463846FFF7B4FFA542F6D103B0BDE87A
:10915000F08F002EECD0D7F810A06A1E0AF10103A0
:10916000002A01923B610EDD04EB850586F0010BC0
:1091700004F1040959F8041F53465A463846FFF7CC
:1091800097FFA945F6D1019A0232384654F82210C9
:1091900043463246FFF78CFFB86A514603B0BDE83C
:1091A000F04F03F03FBA00BF38B50C460546C9681A
:1091B000FFF732FFA1682846BDE83840FFF72CBF13
:1091C00038B50B79342B0C46054617D01021806A30
:1091D00003F056FAA468C4B1A30704D123799A2BEB
:1091E0002AD09B2B16D021462846FFF715FFA86AE8
:1091F00004220221BDE8384003F014BC8968FFF75F
:109200000BFFE468A468002CE6D11021A86A03F0E3
:1092100037FAECE7A1682846FFF7FEFEE368996895
:109220000029E4D02846FFF7F7FEA86A04220321AC
:10923000BDE8384003F0F6BB1021A86A03F020FA1D
:10924000A1680029EED1D2E710B504468968FFF77E
:10925000E3FEA06A0021BDE8104003F0B9BA00BFE8
:109260002DE9F04115460746B1B988466DB16E68E3
:10927000360A09D004350024013455F8041F384655
:10928000FFF7CAFEA642F7D1B0444146B86A0022B1
:10929000BDE8F04103F0C6BBFFF7BEFE4FF001088A
:1092A000E4E700BF0A460021FFF7DABF2DE9F84FD7
:1092B0000569838BB0F81E80C3836F1CAB1CB0F8AC
:1092C00018A0B0F81A9003610583478304468868A4
:1092D0000E46FEF795FF78B1A4F818A0A4F81A90EE
:1092E000A4F81E8031692046FFF796FE2946A06A41
:1092F000BDE8F84F03F096B9D4F810B00BF10103B4
:109300002361B068FEF78AFF90B15946A06A03F066
:1093100089F9F1682046FFF77FFE3946A06A03F01D
:1093200081F95B460122B1682046FFF7C1FED3E711
:109330003946A06A03F09CFAE7E700BF10B504467F
:109340008968FFF769FEA06ABDE8104003F082BAA1
:109350002DE9F047D0F8109009F10103036182B0C4
:10936000054688688846FEF74BFF18BB2C69631CCE
:109370002B610246D8F8081023462846FFF798FECE
:109380002846D8F80C10FFF747FED8F80800FEF77B
:1093900045FF002845D1D8F8103013B9D8F814305B
:1093A00023B1A86A03F0CCF8002846D02146A86A69
:1093B00003F038F901AA712108F11000FFF7E2F972
:1093C000074648B3002401E0A74225D0019B53F88B
:1093D0002460B068FEF714FF01340028F4D1D5F8FA
:1093E00010A00AF101032B610246B16853462846DA
:1093F000FFF75EFE2846F168FFF70EFEB068FEF745
:109400000DFF70B9A86A03F09BF888B15146A86AAD
:1094100003F008F9A742D9D1D8F814102846FFF76D
:10942000FBFD4946A86A03F0FDF802B0BDE8F087ED
:109430004946A86A03F01CFAE8E74946A86A03F01F
:1094400017FAB3E7F8B50C46D1E90161360A0746C9
:10945000FFF7E2FD022E15D9033E26F00106033682
:10946000012521693846FFF7D7FDE368B86A1B0973
:10947000A3F125010235C9B203F0B2FAB54204F1F5
:109480000804EED1F8BD00BF2DE9F0410D46D1E949
:109490000171A7F10D083F0A0646FFF7BDFD012F38
:1094A0000FD95FFA88F80835012455F8041F3046B3
:1094B000FFF7B2FD01344146B06A03F091FAA742CA
:1094C000F3D1BDE8F08100BF38B50C46C968054648
:1094D000FFF7A2FDA168A86AC1F3071134291ABFDA
:1094E0004039C9B20221BDE8384003F073BA00BF69
:1094F00010B504468968FFF78FFDA06A0321BDE817
:10950000104003F067BA00BF2DE9F843D0F810808F
:1095100091F8049008F1010303614F68A9F11E0955
:10952000B9FA89F93F0A06464FEA59190FD00D1DBD
:10953000002402E0B06A03F0ADF955F8041F0134CD
:109540003046FFF769FDBC4242464946F2D14146EA
:10955000B06ABDE8F84303F065B800BF2DE9F041FB
:109560000E46D1E9017104463F0AFFF755FD032F6E
:1095700083BFD4F8108008F1010323614FF0000885
:1095800001250FE01A79852A32D09B6853BB072149
:1095900003F026FABD4204DA42460021A06A03F035
:1095A00079F908366B1CBB421EDA02353169204658
:1095B000FFF732FDBD4205DAA06A03F043F9A06A65
:1095C00003F052F9F368A06A03F00F020E2AD9D112
:1095D000C3F30713262B1ABF353BD9B2062103F07C
:1095E000FFF9D7E73321FAE7032F05DCBDE8F08167
:1095F000322103F0F5F9CDE72569A06A6B1C2361E0
:10960000294603F035F94146A06A03F00BF8012121
:10961000A06A02F09BFFA06A03F022F9A06A03F09F
:1096200019F92946A06ABDE8F04102F0FBBF00BF6E
:109630002DE9F0410569CF68AB1C036188460446FB
:109640002B460022B968FFF733FD6E1CD8F80810CE
:109650002046FFF7E1FC3146A06A03F009F92946EC
:10966000A06A02F0DFFFA06A4FF0FF3102F06EFF48
:10967000F9682046FFF7D0FC3146A06ABDE8F0410A
:1096800002F0D0BF2DE9F04F83B08246DDF8309074
:10969000019117469846B9F1000F03D0138B43F0A0
:1096A00008031383A7F82080DAF800201378002B32
:1096B0004FD00199538D0868002B38D04FF0000B24
:1096C0005D4603E0538D01359D422DDAD66A16F8CA
:1096D0003530043B012B06EBC506F3D8798D002904
:1096E000F0D0002401E08C4218DAFB6A13F8342031
:1096F000052A03EBC40304F10104F4D15A6873682A
:109700009342F0D119467288002302F025FD798D2D
:10971000019B8C4218680BF1010BE6DBDAF80020A4
:10972000538D01359D42D1DBBBF1000F07D14B4674
:109730004246394603B0BDE8F04F03F0C7B943468F
:109740005A463946CDF8309003B0BDE8F04F03F0EB
:10975000D3B9019B1868EAE72DE9F047044617469C
:1097600000251A468679B0F81490B0F81680164B8A
:10977000857182B08A4645613946FFF7A1FBA3682F
:1097800013B102B0BDE8F087E38AA28A4BB142B9B7
:109790001946A06A03F046F9A06A03F001F8E38ACB
:1097A000A28A009204F12801524604F12400FFF736
:1097B00069FF003618BF0126A671A4F81490A4F81A
:1097C000168002B0BDE8F087B9B0000870B54379E3
:1097D000012B04460D4607D00969AA6820464C2390
:1097E000BDE87040FFF7B8BF436A0A465B8B0221B1
:1097F000FFF794FB01462861EFE700BF70B50D4607
:1098000041790129064608D0AC69EA68304646230A
:109810002146FFF7A1FFE08A70BD134607212A46C3
:10982000FFF77CFB0446A861EFE700BF10B5436A71
:109830005A8B0446FFF7E2FF01462046BDE8104080
:10984000FFF7C2BBF0B54379CE68012B83B0044665
:1098500017461DD0726900252B4604F1280104F13A
:1098600024000095FFF70EFFF1682046FFF7D4FBB8
:10987000062F08D00023A06A1A46012103B0BDE8D4
:10988000F04003F05FB92946A06A03F087F8F1E7DA
:10989000436A0A465B8B3946FFF740FB024670611C
:1098A000D9E700BF30B48968044689B1CB684BB1B1
:1098B00013F0030206D11D79952D0FD0962D0CD0F3
:1098C000AC2D0FD00A462046002130BCFFF7C8BCA3
:1098D000806A0A4630BC03F0A5B81A46896830BCD5
:1098E000FFF7BEBC062230BCFFF7ACBFF8B5154B86
:1098F000D3F8286106B1F8BD07697B1C03610446F3
:109900000D463B4689680122FFF7D2FB1F21012249
:10991000A06A02F07BFBE96849B9A06A012103F063
:1099200035F93946A06ABDE8F84002F07BBE204612
:10993000FFF772FB334632460121A06A03F002F9B9
