:020000040800F2
:1000000000000220F5ED040845EE04080D0C02087E
:10001000F50B0208FD0B0208050C020800000000A9
:1000200000000000000000000000000045EE040891
:1000300045EE04080000000045EE0408610B0208CC
:1000400045EE040845EE040845EE0408A9B7020889
:1000500045EE040845EE040895B40208A1B4020870
:10006000ADB40208B9B40208C5B4020845EE0408EC
:1000700045EE040845EE040845EE040845EE040884
:1000800045EE040845EE040845EE040800000000B3
:10009000000000000000000000000000D1B40208D1
:1000A00079B3020889B3020899B3020829B3020898
:1000B00039B3020849B3020859B302086D5A03085C
:1000C00045EE0408755A030845EE040845EE040899
:1000D00045EE0408AD690308B56903080000000097
:1000E000FDB40208DDB7020845EE04080000000078
:1000F00000000000000000000000000045EE0408C1
:100100000000000045EE040869B3020845EE04084B
:1001100000000000000000000000000000000000DF
:1001200045EE040845EE040845EE040845EE0408D3
:1001300045EE040800000000000000000000000080
:10014000000000000000000000000000C57D020863
:1001500045EE040845EE040845EE0408BD690308B1
:100160007D5A030845EE040800000000000000006E
:10017000000000000000000000000000000000007F
:100180000000000045EE0408000000000000000030
:0801900045EE040845EE0408E9
:10400000034B1A6A02601A691862826400207047C2
:104010003C3A0020024B1A6A12681A62704700BFCD
:104020003C3A0020C460056146618761C0F81C808D
:10403000C0F82090C0F824A0C0F828B0C0F82CD058
:1040400080ED0C8B80ED0E9B80ED10ABC0F808E08E
:10405000FFF7D6BF08B5114A136A0BB91CF01CFD57
:10406000996C58601161196811621846C468056935
:1040700046698769D0F81C80D0F82090D0F824A039
:10408000D0F828B0D0F82CD090ED0C8B90ED0E9B92
:1040900090ED10ABD0F808E0012070473C3A0020CA
:1040A00010B50A460021044600F022FB00B110BD05
:1040B000002CFCD0204609F001FF00BF0A46002179
:1040C00000F016BB10B50A460121044600F010FBB3
:1040D00000B110BD002CFCD0204609F0EFFE00BF5F
:1040E000FFF7DEBF10B501220C4600F0C9FC00B19D
:1040F00010BD002CFCD0204609F0E0FE00F0C0BC52
:1041000000F082BC2DE9F0432A4C00254FF0030952
:10411000D4F840710021013143189A0803F00303D9
:10412000BA5C5B0042FA03F303F00303022BF2D004
:10413000D4F84C3109018A0803EB001081B300EB7D
:10414000820103681A0728D1D4F84C219A4224D856
:104150009A1AD4F850614FEA921C120902F0030730
:104160009E424FEA470718D9D4F840E11EF80C8068
:1041700048FA07F303F00303012B0ED109FA07F7FE
:1041800047EA080704EB85083F2D0EF80C709ABF2C
:104190000135C8F85C21C4F8583104308842D0D1C8
:1041A0002DB1013D04EB8503D3F85C01B0E7BDE818
:1041B000F08300BF3C3A0020114BD3F84C218242DF
:1041C00015D8D3F85011884211D230B4801AD3F8E0
:1041D00040418109000900F00303655C5B0045FA7A
:1041E00003F202F00302012A02D030BC704770478C
:1041F000032202FA03F31D43655430BCFFF782BF6C
:104200003C3A0020F8B5234ED6F84C71002F3ED032
:10421000C71BF909D6F848014FEA171E435C0EF098
:1042200007040122A24023EA02034354BF09D6F83F
:104230004041E05D71463D460EF003034FF0030C34
:104240005B000CFA03F320EA030363550131D6F84F
:1042500040418D0801F00303605D5A0040FA02F20C
:1042600002F00302022AEBD0A1EB0E01082928BFBD
:104270000821973156F82130BB42D6F8803288BFEA
:1042800046F82170BB4238BFC6F88072F8BD0820DE
:104290001DF050FB3C3A0020174BD3F84C118142E3
:1042A00017D8D3F85021904213D210B4401AD3F843
:1042B000404183090109E35C01F00302520013410C
:1042C00003F00303012B4FF0000004D05DF8044B12
:1042D00070470020704701300B189A0803F0030361
:1042E000A25C5B0042FA03F303F00303022BF2D05B
:1042F00000015DF8044B70473C3A00200B4BD3F8AB
:104300004C2182420FD8D3F8501188420BD2801A28
:10431000D3F84821C309C0F30210D35C43FA00F07C
:1043200000F0010070470020704700BF3C3A0020B9
:10433000F8B521F00F06331A03F10053013B1C4A74
:104340001C4DDC00A2FB0434640A621C8118A6EB3D
:104350008413C5F848110021C5F84C31C5F8444113
:10436000C5F84001C5F8506146F002FAA2000732D4
:10437000D2080021D5F8480146F0FAF920220021A0
:1043800005F5187046F0F4F9D5F84421D5F84C310C
:10439000501E03EB821301210022C5F88002C5F8EC
:1043A000543185F85C12AA82C5F88422F8BD00BF9A
:1043B000F32C23FA3C3A0020024A938A0133938279
:1043C000704700BF3C3A0020024A938A013B938227
:1043D000704700BF3C3A0020024B988A003018BF5B
:1043E000012070473C3A0020030700D07047FFF7D8
:1043F000E3BE00BF79B138B5041F04EB810501E0CD
:10440000A54207D054F8040F0307F9D1FFF7D4FEF3
:10441000A542F7D138BD704770B5124DAB8A002266
:104420000133AB82C5F8582105F1140405F59676E1
:1044300001E0A64207D054F8040F0207F9D1FFF7B4
:10444000BBFEA642F7D1D5F88402030701D1FFF7DE
:10445000B3FEA8682969091A8908BDE87040FFF70A
:10446000C9BF00BF3C3A00202DE9F04F514CD4F8B1
:104470004461D4F8583183B0B000002583B3C4F848
:104480005851F8B10027BA08D4F8401107F00303D7
:104490008A5C5B0042FA03F303F00303032B05D0AD
:1044A00001378742EFD3D4F85831E7E73846FFF7B2
:1044B00029FED4F844610137B0008742E3D3D4F831
:1044C0005831DBE7202200213B4846F051F9A38A0E
:1044D000013E013BC4F88062A38203B0BDE8F08FC7
:1044E0000028EFD09E461F464FF003094FF0020B05
:1044F00006E0032B52D0012B22D001378742E1D2B4
:104500004FEA9708D4F8402107F0030512F8081085
:104510006D0041FA05F303F00303022B02EB080CD4
:10452000E7D1BEF1000FE8D009FA05F521EA05014F
:104530008CF80010D4F844614FF0010EB000DCE7B5
:10454000FE08D4F8482112F806E007F0070A4EFAF0
:104550000AF0C3073244E7D53801D4F84C110B58A0
:1045600008446BB16A46B32109F09CFE009810B173
:1045700001990AF033FED4F8482112F806E03244DB
:10458000012303FA0AF32EEA030E82F800E0D4F8BE
:10459000403103EB080C13F80810C5E70BFA05F5DA
:1045A00021EA050102F80810D4F844614FF0000E2A
:1045B000B000A2E73C3A00209C3C002038B5064CF5
:1045C000A38A00250133A382C4F85851FFF74CFF9A
:1045D000C4F84C5138BD00BF3C3A00202DE9F047EB
:1045E0003D4DD5F84C11D5F850210023521AC0E9A1
:1045F0000023C0E90233C0E904331C4683619C46B2
:104600001E4619469A4699469E46D5F8402112F80C
:104610000A804FEA490948FA09F808F00308B8F196
:10462000010F4FD047D3B8F1020F02D101344460DB
:104630000131D5F84421013392009A4211D0D5F8C6
:1046400040714FEA930A03F0030917F80A804FEA12
:10465000490748FA07F818F0030802D0B8F1010F2B
:10466000D3D1012912D0022902D14769013747610C
:1046700087698F4238BF81619A4210D0B8F1010F2B
:1046800024D04FEA930A03F00309BEE70769013714
:10469000076187698F4238BF81619A42EED17645C2
:1046A00002D99A42C66015D124014FEA0C13C0E921
:1046B0000143BDE8F0870CF1010CC0F808C00136D9
:1046C0004146B6E7013444604146B2E7B645E8D317
:1046D0000026D6E7B646FBE73C3A0020034BD3F86A
:1046E0004C01003018BF0120704700BF3C3A002049
:1046F0002DE9F04F0F308DB001F001035FEA101883
:104700000A9376D0DFF8FCB2BBF81430002B70D1DE
:104710000892DBF84C21002A00F07181DBF854315B
:104720009BF85C129B1A42461B09082A28BF0822E4
:10473000099381F00103029302F197030B934FF069
:10474000030A5BF823300193DBF880320393089B64
:10475000002B53D1019B039A934246D801271C4654
:104760003D460797791C3B460CBF03230023059366
:104770005B00DBF840210693BB00009204934FEAF4
:10478000840E6E004FF00009009B185D029B002B09
:1047900040F0C280079B5A1C00F0D780012B00F02C
:1047A000F580DDF814C006E00CF1010C4FF00009B3
:1047B000BCF1040F0DD04FEA4C030AFA03F3034295
:1047C000F2D109F10109C84522D9AC44BCF1FF3F3F
:1047D000EED1019B3C44A34204D8049B9E44039B1E
:1047E0009C42D1D9C84540F20481029B002B00F0C5
:1047F000B980002318460DB0BDE8F08F019B039CE3
:104800001A46A242F1D84FF0FF373D460797A9E775
:104810000CEB0E01089B481C002B40F0D780A0EB4E
:104820000904B8F1070F04F1010531D808EB0103C1
:1048300008F1970608F198024FEA93034BF82630E7
:104840004BF8223024D008F19902B8F1060F4BF84A
:1048500022301DD008F19A02B8F1050F4BF8223032
:1048600016D008F19B02B8F1040F4BF822300FD09C
:1048700008F19C02B8F1030F4BF8223008D008F180
:104880009D02B8F1010F4BF8223001D1CBF87C32F8
:10489000A208009F04F00303BF5C5E000123B34045
:1048A0003B43009FA942BB540FD34FF0020CAA0810
:1048B000DBF8406105F00303B75C5B000CFA03F31F
:1048C00001353B43A942B354F1D2DBF84C61089A5D
:1048D000250173192AB1DBF854219A4288BFCBF81D
:1048E0005431021B12011846002145F041FF0A9A7B
:1048F00003466AB100227251E108DBF84801012247
:10490000455C04F0070402FA04F444EA0502425448
:1049100018460DB0BDE8F08FDDE9053109E02B4404
:104920004FF000095A1C3FF454AF042B31443FF4BC
:1049300050AF0AFA01F202429C46F0D109F1010996
:10494000C8457FF665AF2B44ECE74FF0030C4FEA08
:104950004C030AFA03F303420AD0099A0CEB0E0344
:104960009A423ED91CF074F8012302930B9BE8E6AF
:1049700009F10109C8457FF64BAFAC44BCF1FF3FDC
:104980003FF427AFBCF1040FE1D122E7DDF808C006
:104990000CE0099A0CEB0E039A42E3D90CF1010CDE
:1049A0004FF00009BCF1040F3FF413AF4FEA4C0382
:1049B0000AFA03F30342ECD109F10109C8457FF675
:1049C00027AFAC44BCF1FF3FECD102E74A1E09EB34
:1049D0000103920805460C46CBF880221846591E62
:1049E00056E70CF1FF3CBCF1FF3F4FF00009AED1A0
:1049F000EFE6DBF8403100934FF0FF310AE7082083
:104A00001CF098FF3C3A0020034B9B8A13B908B175
:104A1000FFF7F8BB704700BF3C3A0020030701D105
:104A2000FFF73ABC00207047F8B5144ED6F8543161
:104A30008342044601D9030702D025462846F8BD23
:104A4000FFF72AFC07460028F7D02046FFF756FC60
:104A5000012201463846FFF74BFE05460028ECD000
:104A6000844205D9B38A002BE7D1FFF7CBFBE4E7FB
:104A70003A46214645F038FEE0E700BF3C3A0020C8
:104A80002DE9F84F0746002800F0B2805D4D0E4634
:104A9000AC8A002950D0002C50D1D5F84C11D5F853
:104AA0004431A0EB010E4FEA1E1C0CF101004FEA4D
:104AB000830906F10F0181454FEA111140F29F80F1
:104AC000D5F840A14FF001084FEA900B00F0030326
:104AD0001AF80BB05B004BFA03F303F00303022B4D
:104AE00030D023B9013408EB04038B422CD3414569
:104AF00057D02DD344448C4257D30CEB08028C443E
:104B000094450FD94FF0020E9008D5F8404102F0BD
:104B10000303265C5B000EFA03F301323343944532
:104B20002354F1D1A1EB0802120107EB0810002178
:104B30003C4645F01DFE02E0002C54D000242046E7
:104B4000BDE8F88F08F1010801308145BCD1CEE7FE
:104B50008C44A8EB01010CEB010860464FF0030EFA
:104B60008608D5F8402100F00303945D5B000EFA3F
:104B700003F3013024EA030380459355F0D108295B
:104B800028BF082197314FEA9C0355F821209A420B
:104B9000D5F8802288BF45F821309A4238BFC5F841
:104BA00080323C462046BDE8F88F4FEADE1ED5F83D
:104BB000483113F80E100CF0070C41FA0CF1002AE2
:104BC000BCD001F0010130460022FFF791FD044600
:104BD0000028B3D04FEA0812394645F085FDAB8A6C
:104BE000002BACD13846FFF70DFB2046BDE8F88F0F
:104BF00008463A463946BDE8F84FFFF779BD4FF011
:104C0000010874E73C3A0020020701D000207047F9
:104C100038B50446FFF740FBC8B1144DD5F88432CF
:104C200043B15A68AAB19A68BAB1DA68BAB11B68D6
:104C3000002BF6D1012200211020FFF759FD034679
:104C400028B1D5F8842262B100221060FFDE002076
:104C500038BD04331C60012038BD0833FAE70C333B
:104C6000F8E7C5F884025C60012038BD3C3A0020BA
:104C7000034610B3020720D110B51B4AD2F84C41AD
:104C800084421CD8D2F85021824218D982070FD111
:104C90000268164CA24214D0154CA24215D01549F8
:104CA0008A4216D014498A4213D014498A4206D047
:104CB0001846BDE81040FFF7B7BE184670471846C3
:104CC00010BDBDE8104000F06FB8BDE8104000F026
:104CD00017B8D8681C46FFF7A7FEE0602046BDE87D
:104CE0001040FFF7A1BE00BF3C3A002018A80508FD
:104CF00024B105088CBC0508A8B90508CCC1050875
:104D000001B9704738B54C1EE4B2054621464068EB
:104D1000FFF7AEFF21466860A868FFF7A9FF2146AC
:104D2000A860E868FFF7A4FFE8602846BDE83840BF
:104D3000FFF77ABEF0B5044683B038B131B1194BF4
:104D4000984203D0037913F00A0602D0204603B03C
:104D5000F0BD43F008030371C0680191FFF764FEE2
:104D6000A268E060A2B101990139CDB200E0E0682B
:104D700050F83630294600EBC60733B1042B04D077
:104D80007868FFF775FF7860A26801369642EED327
:104D90002046FFF749FE03796FF3C303044603710E
:104DA000D4E700BFC03A002010B10E2800D001B9EE
:104DB00070472DE9F843044680680E46FFF734FE3D
:104DC000013EF6B2A06031466068FFF7B3FF0025F0
:104DD000606013E0E36853F82500FFF71FFE60B141
:104DE000E36853F825703B78022B34D038463146BF
:104DF000FFF73EFFE36843F808000135E068FFF77E
:104E00000DFEB5EB900F4FEA8508E3D3E068FFF79E
:104E10000BFEE0602046FFF701FE8008B0F10408B9
:104E200014D0DFF8549004F10C07002557F8043F24
:104E3000314618463BB19A0702D11A684A4516D046
:104E4000FFF716FF386001354545EFD12046BDE834
:104E5000F843FFF7E9BD7868FFF7E6FD7860B868CA
:104E6000FFF7E2FDB860E36853F80870BEE7FFF7AC
:104E700061FF3860E7E700BF70A20508024BC3E995
:104E800002011861704700BF3C3A002008B5084A8B
:104E9000C31DD2E9031023F0070303448B4201D85A
:104EA000136108BD40F6E661024808F09FFF00BFAD
:104EB0003C3A002064A60508014488420ED241F223
:104EC000055310F8012B03EB4313814283EA0203DD
:104ED000F7D113F0FF0008BF01207047052070478D
:104EE000034B044A5A620022C3F83021704700BFC6
:104EF0003C3A0020D84505082DE9F0478A4641187C
:104F0000884281463BD2034641F2055513F8012BF6
:104F100005EB4515994285EA0205F7D115F0FF0525
:104F200008BF0125174BD3F82480B8F1000F23D018
:104F3000D8E90376DFB1002402E00134A74216D09D
:104F400016F81430AB42F8D106EB44035B785345B6
:104F5000F3D108EB840352465869494645F01CFCDE
:104F60000028EAD1D8F804002044BDE8F087D8F83A
:104F70000080B8F1000FDBD14046BDE8F087052581
:104F8000D0E700BF3C3A00202DE9F84380460E46AA
:104F9000FFF7B2FF002869D1FF2E00F2A880594D1B
:104FA000D5F83071741C002F6BD0D5F83831D5F896
:104FB0003411E2188A4276D808EB0604A0451F4453
:104FC000C5F8382180F08480424641F2055312F83A
:104FD000011B03EB4313944283EA0103F7D113F05F
:104FE000FF0408BF01243246414638464FF000090D
:104FF00045F07AFB07F80690686AD0E902329A42D7
:1050000021D34FEA4308B8F1400F28BF4FF04008C2
:1050100008EB4800400014300121FFF74FF800284A
:105020006CD000F1140303EB880303616B6A036027
:105030006A6A5368D268C0F80C901344C0F80880BC
:1050400043606862C268036903F812406B6A1B69B7
:1050500003EB42035E706B6A03EB82035F61696A74
:10506000CB680133CB606B6A58681044BDE8F883A5
:105070000246D5F83811D5F83001FFF73FF8C5F8EA
:105080003071802CA14638BF4FF08009484601217D
:10509000FFF714F80746C5F83001D8B1C5F83491C8
:1050A0002246002388E7024621443846FFF726F8C7
:1050B00007460028DCD0D5F83431D5F830712344C8
:1050C000C5F83431002FDCD0D5F83831E21873E759
:1050D000052488E701212046FEF7F0FFA146074698
:1050E000C5F830010028D9D1204608F0E7FE06486F
:1050F0001CF0C2FE0146054808F07EFE404608F05E
:10510000DDFE00BF3C3A00201458050864A60508DF
:1051100010B5044645F062FB01462046BDE810404C
:10512000FFF732BF064B5B6A5A68824203D91B689D
:105130005A689042FBD3801A1B6913F8100070471D
:105140003C3A0020074B5B6A5A68824203D91B68CD
:105150005A689042FBD31B69801A03EB40004078E9
:10516000704700BF3C3A0020064B5B6A5A68904289
:1051700003D21B685A689042FBD3801A03EB80036A
:10518000586970473C3A0020094B5B6A5A68824272
:1051900003D91B685A689042FBD3801A1A6903EB43
:1051A000800302EB4002586953780B60704700BFE0
:1051B0003C3A002038B5D0E90023194491420ED979
:1051C000037BDB0705460BD401F1100424F0070430
:1051D000083421468068FEF785FF2C60A86038BD42
:1051E0000021014808F008FE64A6050870B50446D1
:1051F0000E4611461546FFF7DDFFD4E901302A4679
:105200003146184445F09CFA62682A44626070BDD9
:1052100070B5466804468E42354628BF0D460121CA
:10522000FFF7C8FFA168681C721B0844294445F0B9
:1052300087FAD4E9013001336360284470BD00BFB0
:1052400038B504460025002914BF08460120C4E9EA
:1052500000052946FEF724FF237BA06065F30003C9
:10526000237338BD70B50D4601310ED004460026BB
:10527000681CC4E900063146FEF712FF237BA060DC
:1052800066F300036560237370BD284608F016FEC0
:10529000037B016010B443F001030024C0E9014224
:1052A00003735DF8044B704770B504460025002970
:1052B00014BF08460120C4E9000529461646FEF73A
:1052C000EFFE237B034AA06065F300032373C6E966
:1052D000004270BDED51000810B5037BDB070446AA
:1052E00002D48068FEF70CFF0023A36010BD00BF4E
:1052F00070B5002105461020FEF7D2FE002D0446B1
:1053000008BF012500260560314628466660FEF785
:10531000C7FE237BA06066F300032373204670BDA5
:1053200088B110B5037BDB07044604D52046BDE8F1
:105330001040FEF7E5BE8068FEF7E2FE2046BDE8BD
:105340001040FEF7DDBE704738B5037BDB070CD499
:105350000D460168044629448068FEF7C3FE2368B1
:10536000A0601D442560184438BD0021014808F0A4
:1053700043FD00BF64A6050838B504460D46FFF797
:1053800019FFD4E901301D446560184438BD00BFE1
:1053900010B5D0E900239A42044604D0A268002147
:1053A000D154A06810BD0121FFF7CEFF6368A26849
:1053B0000021D154A06810BD38B504460D46012126
:1053C000FFF7F8FED4E90132591C6160D55438BDAD
:1053D0007F292DE9F041CDB2064636D905F03F05CB
:1053E000B1F5006F0C4645F08005C1F387171ED359
:1053F00007F03F07B1F5803F47F08007C1F307385A
:105400002DD30421FFF7D6FED6E90121A40C131DEC
:10541000736008F03F088B1864F00F048C5468F038
:105420007F0883F801809F70DD70BDE8F081022164
:10543000FFF7C0FED6E90132991C716067F03F07A3
:10544000D118D7544D70BDE8F0810121FFF7B2FEAD
:10545000D6E90132591C7160D554BDE8F0810321B1
:10546000FFF7A8FED6E90131DA1C726068F01F0868
:10547000CA1801F8038057709570BDE8F08100BF2D
:1054800038B5054608460C4645F0A8F921460246BF
:105490002846BDE83840FFF7A9BE00BF10B5144646
:1054A000FFF7B6FE047010BD10B51446FFF7B0FE4E
:1054B000047010BD43688B4234BF00235B1A436005
:1054C000704700BFF8B545688D4203D98F18BD42BB
:1054D00001D84160F8BD044680680B466D1A164637
:1054E000C119AA1A184445F02BF96268921B626030
:1054F000F8BD00BF0846114649F0ECBB70B5064642
:1055000008460D4645F06AF9044620B12946D6E919
:10551000000322469847204670BD00BF2DE9F84F92
:105520009DF828400B9E14F0DF0F914605468A46F1
:10553000A6EB020239D0302C0AA9234F0EBF4FF040
:1055400010080F464FF0010813F0800633D002EB2D
:10555000D2767610941B002E32DDB346D8454246F3
:10556000A8BF5A46ABEB020BD5E900033946984772
:10557000BBF1000FF2DCB9F1000F05D051464A46ED
:10558000D5E9000398474E44002C0BDD2644A04586
:105590004246A8BF2246A41AD5E9000339469847D7
:1055A000002CF4DC3046BDE8F88F13F08006074F7E
:1055B0004FF01008CBD113F0010403D01446DAE702
:1055C0000026D8E71646C6E7808705086C870508D9
:1055D0002DE9F04389B0002480468DF80F40119FDB
:1055E0009DF84890139D32B1A1421BDBBA074BD501
:1055F0002B228DF80F20C9B908AC302304F8013DE7
:1056000017F040062BD09ABB164608AACDE90095A4
:105610003B464046121B2146FFF780FF304409B04D
:10562000BDE8F0832D2249428DF80F20109808AC78
:105630000DF1100CA0F10A0E01E0002EE0D0B1FB3C
:10564000F3F603FB161009288CBF7044303004F8C1
:10565000010D64453146F0D117F04006D3D1002A40
:10566000D3D004AB9C42D0D904F8012C013CCCE748
:105670000122CDE900923B460DF10F014046FFF7B4
:105680004DFF013D0646C0E717F004021CBF202273
:105690008DF80F20AFE700BF2DE9F04F91B00F4616
:1056A0000490C80792461D461A9C9DF86C901D9E5A
:1056B0000BD4B90703D19A4B3A689A4205D03846C1
:1056C0000AF022FC400040F0010714F0810303D1EE
:1056D000B9F1300F00F0FA8038460EF06BF900286F
:1056E000C0F28380A2077ED52B23EAB2E5068DF8AF
:1056F00020300DF120080DF121037CD414F0200F8F
:105700004FF0000C0DF1300B4FF0100014BF2C21A6
:10571000614683F800C0012EA3EB0803CDF82CC02E
:105720000593CDE909B07ADDCDE90221CDE900ACE0
:105730003B460BAA0AA909A88DF81FC00DF01EFF51
:1057400003782D2B824644F0400200F08C800B9BA6
:105750009DF81F10B342B8BF3346002940F0D380F4
:1057600005990B441C99994222F0010469DD12F05D
:105770000107A1EB030340F0C0802022CDE9002304
:10578000684904983B463A46FFF7C8FE05469DF82F
:105790001F304FF03009002B76D1059B002B40F0D5
:1057A00084801C9B0B9ACDF80090012ED8BF1E461A
:1057B0000196234651460498FFF7B0FE05444FB1C9
:1057C0002022002300920197049856491A46FFF7B9
:1057D000A5FE05440998584501D0FEF791FC2846DE
:1057E00011B0BDE8F08F63077FD40DF12008434668
:1057F000EAB2E50682D5BAF1020F6ED0BAF1080F0F
:1058000000F08380BAF1100F7FF478AF1946302092
:1058100001F8020B02F1170058700B466EE714F006
:1058200040058DF81FC00FD1CDE90221CDE900A8B8
:105830003B460BAA0AA909A80DF0A0FE2F468246F6
:10584000AFE700273D46A2E7CDE90221CDE900AC54
:105850003B460BAA0AA909A80DF090FE03782D2B50
:105860008246224609D10B9B2D21013B012E0AF1D4
:10587000010A0B938DF81F1042DC9DF81F300027A2
:1058800014463D46002B88D000230122CDE900328A
:105890000DF11F010498FFF741FE1C9B013B1C9377
:1058A000059B0544002B3FF47CAF4146DDF8148096
:1058B000049800230122019200934246FFF72EFE36
:1058C0001C9B42469B1A1C9305446AE71C9AB242F1
:1058D000B8BF32461C921E46FEE61946302001F83B
:1058E000020B501C58700B4608E720238DF820301F
:1058F0000DF120080DF121037AE71F46002546E748
:10590000B342B8BF334601332AE7A0054FF0300158
:10591000197045BF02F10E01597001330233EDE6F3
:1059200028AC0508A49606082DE9F04314468BB070
:105930000A46A10780469946129E24D414F0040F0B
:105940000CBF00232023009302A8139B202107F003
:105950009BF9E305054602D5431C1F2B15D914F00E
:10596000400720D09DF808302F2B1ED902A9002710
:10597000CDE9009623462A464046FFF7CFFD38443E
:105980000BB0BDE8F0832B23DDE70AAA15442521DF
:105990001A4405F8201C14F040074FF000011D4682
:1059A00002F8201CDED102A9E2E70122002302A9AD
:1059B000CDE900324046FFF7B1FD013E013D07460B
:1059C0000DF10901D4E700BF2DE9F04F8BB00B7842
:1059D00004AF834691464FF0000A002B00F0D480BC
:1059E000252B00F0C2810D4602E0252B04D0254670
:1059F0006B786C1C002BF8D1A14280F0B681661A3E
:105A0000DBE90003324698476B78B244002B00F084
:105A1000BB8063780134002B00F0A3812022002694
:105A20000EE02B2B5FD0202B60D0212B61D0302BB0
:105A300040F0518146F040061A4614F8013F3BB150
:105A40002D2BEED114F8013F46F00106002BF7D1C3
:105A5000FA60002594F800804FF0FF33B8F16C0F26
:105A600004BF94F801800134B8F1000F00F08C807D
:105A7000A8F14502332A00F22681DFE812F00C017A
:105A80000C010C012401240124012401240124011E
:105A900024012401F50024012401C700240124016C
:105AA00024012401AE002401240124012401240145
:105AB00024012401240124019C008A0070000C01AF
:105AC0000C010C01240124012401240124012401DE
:105AD00024012401F500560024013D002401AE00FC
:105AE00024012401AE0046F00206A6E746F00406B3
:105AF000A3E746F00806A0E7D9F80080BB6040465F
:105B000044F06CFEBB68591C09F10409024602D03E
:105B1000984228BF1A460195FB68009341463346D8
:105B20005846FFF7FBFC824429E007F11401D9F83D
:105B30000000BB60FFF728FBBB687A690146581C70
:105B400009F1040902D09A4228BF1A460195FB6860
:105B5000009358463346FFF7E1FC82440FE0D9F842
:105B600000100395FA686123CDE9016200930122D8
:105B70000A235846FFF72CFD09F104098244611CF1
:105B80000B78002B7FF42CAF50461C37BD46BDE888
:105B9000F08F07F11801D9F8003001F8043D0195A4
:105BA000FA680092334601225846FFF7B7FC09F124
:105BB00004098244E3E7D9F80030019509F10409AA
:105BC000002B00F0C480FB68009304223346684930
:105BD0005846FFF7A3FC8244D1E728F00F020F3AA2
:105BE000D2B2D9F8001003950092FA6808F10103C7
:105BF00003F00603CDE90162C3F110030022584609
:105C0000FFF7E6FC09F104098244B8E7D9F800205F
:105C10003B6010467A601CF0DDF8C11D21F00701E1
:105C20007A68C7F808D0ADEB010D84460DF1100875
:105C3000104641460CF1FF327A601CF0CFF83B6809
:105C40007A68581C09F1040902D09A4228BF1A4602
:105C50000195FB680093414633465846FFF75EFCCA
:105C60008244D7F808D08AE7DBE9000302224149E1
:105C70009847D9F800100395FA686123CDE90162CD
:105C80000093002210235846FFF7A2FC023009F1CE
:105C90000409824473E709F1070929F00709D9E9E2
:105CA0000001BB604DF01AFEBB68CDE9005300EE69
:105CB000100AFB68324641465846FFF735FE09F1A7
:105CC000080982445BE7DBE900030122214698478B
:105CD0000AF1010A53E72378FA60A3F13002092A96
:105CE0004FF000050BD805EB850503EB450514F8CF
:105CF000013FA3F13002092AA5F13005F3D92E2B7B
:105D00007FF4A8AE94F80180B8F12A0F15D0A8F15D
:105D10003003092B04F101044FF000033FF69EAE5F
:105D200003EB830308EB430314F8018FA8F130025F
:105D3000092AA3F13003F3D990E6D9F8003094F89A
:105D4000028023EAE37309F10409023486E6FB6862
:105D500000930522334608495846FFF7DFFB82448B
:105D60000DE71E462023FB6073E60C4651E600BF9C
:105D70005887050868870508608705080EB400B5D0
:105D800082B003AA52F8041B0192FFF71DFE02B075
:105D90005DF804EB03B07047F8B5054600AF084660
:105DA0000C4616461CF016F8073020F00700ADEB45
:105DB000000D694620461CF011F832466946284617
:105DC000FFF702FEBD46F8BD0EB400B582B003AACF
:105DD00052F8041B0192FFF7DFFF02B05DF804EBFD
:105DE00003B070470278110602D413461846704774
:105DF00002F07F03520605D5402223EA020352082F
:105E00001342FAD1427802F0C0018029EED110B4D9
:105E1000013002F03F0410F8012F02F0C001802988
:105E200044EA8313F5D018465DF8044B704700BF71
:105E3000437803F0C003802B00F1010205D112F872
:105E4000013F03F0C003802BF9D01046704700BF1C
:105E500081424FF0000208D911F8013D03F0C00360
:105E6000802B18BF01328842F6D11046704700BF20
:105E7000014488420CD2421E0139002012F8013F31
:105E800003F0C003802B18BF01308A42F6D170475F
:105E9000002070477F289DBF024B185CC0F3400074
:105EA00000207047948705087F289DBF024B185C2F
:105EB000C0F3C00000207047948705087F289DBF6D
:105EC000024B185CC0F380000020704794870508DF
:105ED0007F289DBF024B185CC0F3801000207047E4
:105EE000948705087F280AD8074B1B5C13F00C0F1A
:105EF00007D1A0F15F00B0FA80F0400970470020A0
:105F000070470120704700BF948705087F289DBF18
:105F1000024B185CC0F300100020704794870508FE
:105F20007F289DBF024B185CC0F3401000207047D3
:105F3000948705087F2804D8024B1B5CDB0648BF0A
:105F400020307047948705087F2804D8024B1B5CDB
:105F50009B0648BF203870479487050830380928C9
:105F600084BF20F020000738704700BF01448842FA
:105F700039D210B40022E52408E003F0C003802BDE
:105F80002DD10130531E8142DAB222D90378002A82
:105F9000F3D1BF2B11D81A0621D4421C914208D943
:105FA000104612F8013BBF2B07D81B0617D48A42B4
:105FB000F6D101205DF8044B7047F72B0FD8DB08B2
:105FC00003F00603013044FA03F3814203F00302B5
:105FD000DCD8B2FA82F040095DF8044B704700202B
:105FE0005DF8044B70470120704700BF70B41D0975
:105FF00095421CD20446501B03F00F0301EB4501F0
:10600000064606E051F8024BDC4025F8024C013E02
:106010002C46012E04F10205F4D10A8822FA03F37A
:10602000238035F8023C03B9013870BC704700206A
:1060300070BC70472DE9F043079F8446D21BA7B37D
:10604000023BA1F102083E468646002538F8024F81
:1060500033F8029F4C442C44013E2EF8024B4FEA89
:106060001445F3D17F00384439446AB102391346EC
:10607000064631F8024F013B2C4426F8024B4FEA0A
:106080001445F6D100EB42004DB1012320F8023B4C
:10609000A0EB0C0040FA03F21046BDE8F083A0EB41
:1060A0000C0042101046BDE8F083002AF4D03D46B3
:1060B000DCE700BF2DE9F041069D521BBDB3023B5A
:1060C000A1F1020E2F46844600263EF8024F33F817
:1060D000028F3444A4EB0804013F2CF8024B4FEA32
:1060E0002446F2D16B00194403446AB102391546C3
:1060F0001F4631F8024F013D344427F8024B4FEA66
:106100002446F6D103EB42039A1E90420AD833F894
:10611000021C39B9043B02E01988023B11B99842CC
:106120001A46F9D90232101A4010BDE8F0812E4605
:106130000346DAE738B50229836838BF02210D46E5
:106140001BB10268B1EB920F09D9044669001846E9
:10615000FDF7C8FF2368A06065F39F03236038BD87
:1061600038B5002105460C20FDF79AFF2A78037800
:1061700062F300036FF34103044603702868236849
:10618000C0F39D0060F39F0323606B686360002190
:106190004000FDF785FFA0602A68A968C2F39D0250
:1061A000520044F0A1FA204638BD00BF4B0018440D
:1061B0001A4411B310B430F8023C32F8024C1B1BE5
:1061C000002BA0F10200A2F1020209DB0DD101397E
:1061D0000FD030F8023D32F8024D1B1B002BF5DAD0
:1061E0004FF0FF305DF8044B704701205DF8044B21
:1061F000704708465DF8044B70470846704700BF7B
:1062000010B504468068FDF77BFF2046BDE81040CE
:10621000FDF776BF38B505460C460221FFF78AFF29
:106220002B78002CB4BF43F001036FF300032B70F5
:10623000B8BF644200236B600CB907E06B68AA68C2
:10624000581C686022F81340240CF7D138BD00BFF9
:106250002DE9F04F87B0814202910546019279D035
:10626000019B98427ED000230393029C019E6168AB
:10627000736828461944FFF75DFF2A68A868C2F3CF
:106280009D020021520044F073FAD6F80490A968E8
:10629000A36804910093D4F804A0D6F80880B9F15B
:1062A000000F34D0CAEBCA735F00BE1E01EB4A0B6D
:1062B000059507EB0B04BAF1000F3ED0DDF800E0C6
:1062C00006EB0B0C544600233EF8022BB8F80000F6
:1062D0003CF8021F00FB02121344013CACF80030F2
:1062E0004FEA1343F0D15C46A51C13B1ABF8003064
:1062F0002C461BF0CBFCB9F1010908F10208AB46B2
:10630000D7D1DDE90435A4EB03094FEA6909029B03
:10631000019AC5F804901B781278534013F00103DA
:106320000ED12A7863F30002039B2A707BB11846D2
:1063300007B0BDE8F04FFFF763BF0BF10205D8E7E8
:106340002B7843F001032B70039B002BEFD107B098
:10635000BDE8F08FFFF704FF019B02909D4206D03D
:10636000039082E7FFF7FCFE019003907DE7029B1C
:106370000393019379E700BF0023C0E900338360F2
:10638000704700BF0022C0E90022826001B9704757
:10639000FFF740BF70B40578816005F0FE0545F059
:1063A000020505700168002662F39F0146600160E6
:1063B0000BB970BC7047194670BCFFF72BBF00BF0C
:1063C00010B103789B0700D570478068FDF798BE31
:1063D00038B505460C464968FFF7ACFE22782B78A5
:1063E000A86862F300032B7063686B60D4E9012135
:1063F000BDE83840520044F077B900BFF8B5044614
:106400009DF81850042116461F46FFF793FE217889
:106410001DB1002E77F100031ADB6FF30001324645
:106420003B462170002052EA0301606001D10EE07A
:106430006068A568461C110C41EA0341666025F8B6
:106440001020180C0A46034652EA0301F0D1F8BDA9
:1064500041F00101724267EB47032170E2E700BFA0
:106460002DE9F04110EE104A0178E30F63F30001CB
:10647000C4F30F4313F4FF43064601702BD0B3F56A
:10648000FF4F28D0C4F3C755A5F17F03002B22DBB3
:1064900025D0B5F16F0148BFA5F16001C4F3160422
:1064A000162B44F400044FEA21171DDCC3F1170337
:1064B0003946DC40FFF73EFE776000239F420CD058
:1064C0005B007900B268D452023399424FEA144417
:1064D000F8D1BDE8F08100237360BDE8F0810121AF
:1064E000BDE8F041FFF796BE093303F00F08B5F1A0
:1064F000960348BFA5F187031D113946FFF71AFE21
:10650000776025B16A000021B06844F031F9B8F134
:10651000000F0AD0B36804FA08F2C8F1100823F893
:10652000152024FA08F46B1CC8E72B46C6E700BF09
:106530002DE9F843C2F35B05064688461C46691CF4
:1065400008EB0207DDF82090FFF7F4FD3378002C0C
:1065500043D043F0010333700020B84570602CD263
:1065600040461FFA89FC0378A3F13004092C00F19E
:10657000010E05D9A3F14102192A20D8A3F137044D
:106580004C4524D2D6E901502DB329460246138842
:1065900001390CFB034322F8023B4FEA1344F6D1C6
:1065A00000EB45050CB12C8002352D1A6D10774596
:1065B00075607046D7D1A7EB0800BDE8F883A3F15A
:1065C0006102192A03D8A3F157044C45DAD3A0EB92
:1065D0000800BDE8F8830546E4E764F30003337080
:1065E000BAE700BF2DE9F041064615461F460029CF
:1065F00046D0531E1F444FF0FF38E9000F31090900
:106600003046FFF797FD327800236FF300023270B7
:106610007360002D37D018460F2828DC3978814068
:1066200004E00F2824DC3C7884402143013D89B2FA
:1066300000F108004744F4D1B268581C706022F899
:106640001310716849000239B068421809D2435AE0
:106650003BB9931E02E01988023B11B998421A46D1
:10666000F9D9931C1B1A5B107360BDE8F0810021FF
:10667000B2685C1C746022F8131010387368CBE7A2
:106680004FF00108B9E76FF00101DDE738B5446864
:1066900002460CB9486878B10B78157803F001030D
:1066A00005F00100181A07D14B689C4205D30AD99E
:1066B0000120EB0748BF404238BD4FF0FF30EB07E9
:1066C00048BF404238BD10468A6880682146FFF7BF
:1066D0006DFDF4E7884210B5044601D0FFF778FE5F
:1066E00023786FF30003237010BD00BF884210B5FC
:1066F000044601D0FFF76CFE2378C3F30002C2F119
:10670000010262F30003237010BD00BF30B5884260
:1067100085B0044601D0FFF75BFE62683AB321788A
:10672000CB0714D42046511CFFF704FDD4E9012106
:1067300004AB012023F8020D00900846FFF77AFC15
:106740002378606043F00103237005B030BD04ABD3
:106750000846A16801256FF3000023F8025D00954B
:1067600020700846FFF7A6FC606005B030BD01212F
:106770002046FFF7DFFCA36801221A8023786260BD
:106780001343237005B030BD2DE9F84F4B68064622
:1067900003B122B93046BDE8F84FFFF719BE02F148
:1067A0000F094FEA19190D4603EB09011446FFF7CB
:1067B000C1FCD5E901A014F00F026FF0004309EB12
:1067C0000A0404EB0308B16853444FEA480718BFB2
:1067D000C2F110025B0001EB070EBAF1000F19D0F5
:1067E000023318445146F4464FF0000B30F8023D96
:1067F00043EA0B0323FA02FB01392CF802B94FEAF2
:10680000034BF3D1CAEBCA7A2BFA02F30EEB4A0E12
:106810001FFA83FAC9EBC9730EEB430309F1004970
:10682000023309F1FF391846AEF800A04FEA4902D9
:10683000002143F09DFF03464CB130F818203B4443
:106840001AB104E033F8022D0AB9013CFAD17460A0
:106850002A78337862F300033370BDE8F88F00BF05
:10686000F0B50C46496885B0054609B116462AB907
:1068700021462846FFF7ACFD05B0F0BDFFF75AFCF6
:106880003346D4E90121A868FFF7B0FB686022789D
:106890002B7862F300032B70DB07EDD5D4F804C02E
:1068A0000023ADF80E303209BCF1000FE4D072B114
:1068B000D4F808E0BEF8003071462BB11FE09A42D0
:1068C00005D031F8027FD7B901339C45F7D1944503
:1068D000D2D9D4F808E03EF8122006F00F060123C2
:1068E00003FA06F6013E32420FD1BDF80E30002BFE
:1068F000C2D0A968012358B90B806B60BCE70123A3
:106900009445ADF80E30E6D8F3E7ADF80E30F0E779
:106910000246009308460DF10E03FFF78BFB6860FB
:10692000AAE700BF2DE9F041D1F804805768B845C7
:1069300082B00D461446064604D31DD92346474669
:106940002C461D4623782A785340DB0720D539464C
:106950003046FFF7EFFBAB686D68B068D4E9012102
:106960000095FFF7A7FB70602278337862F300038D
:10697000337002B0BDE8F081886892684146FFF745
:1069800015FC0028DEDB234647462C461D46D9E78A
:10699000791C3046FFF7CEFBAB686D68B068D4E970
:1069A00001210095FFF746FB7060DDE72DE9F0411E
:1069B0004F68D2F80480474582B00D46144606461B
:1069C0000DD305D92346B8462C4600271D4607E0BF
:1069D000886892683946FFF7E9FB0028F2DA012758
:1069E00023782A785340DB0718D508F10101304697
:1069F000FFF7A0FBAB686D68B068D4E90121009592
:106A0000FFF718FB70602378327803F00103C7B9F1
:106A100063F30002327002B0BDE8F08141463046B7
:106A2000FFF788FBAB686D68B068D4E90121009579
:106A3000FFF740FB70602378327803F00103002FEA
:106A4000E6D0C3F1010363F30002327002B0BDE887
:106A5000F08100BF2DE9F04F91464B68526885B038
:106A600093428846019002D2C8461346894698F858
:106A70000020019DD00756BF99F80010012101F0B8
:106A8000010119442846FFF755FBD8E9011798F88A
:106A9000003099F80040029183EA0401C907AA680E
:106AA000D9E9016B60D413F0010304F0010462D052
:106AB00001210B464FF6FF70029DC3F1000AC4F19D
:106AC000000E1FFA8AFA1FFA8EFE002D56D0023FE2
:106AD0009446039237F8022F013E013D8AEA0202F2
:106AE000AE42134496BFBBF8002072468EEA020203
:106AF000144403EA040282EA000211FA82F12CF83B
:106B0000021B98BF0BF1020B090C240C1B0C002D6F
:106B1000E0D1DDE9023202EB430311B1012119801A
:106B20000233991E8A420AD833F8020C38B9043B62
:106B300002E01888023B10B99A421946F9D902318D
:106B400001988A1A5210426098F8003099F8002093
:106B50000178C2F30002C3F30003134063F30001A2
:106B6000017005B0BDE8F08F002103F0010304F0CF
:106B700001040846A0E7194618469DE71346CCE7EE
:106B80002DE9F04F91464B68526885B09342884694
:106B9000019002D2C8461346894698F80020019C0D
:106BA000D00756BF99F80010012101F001011944E6
:106BB0002046FFF7BFFAD8E9011798F80030029194
:106BC000D907A268D9E9016B0AD499F8001001F03D
:106BD000010411F0010103F0010307D1084608E0A8
:106BE00099F8004003F0010304F0010401214FF67D
:106BF000FF70029DC3F1000EC4F1000A1FFA8EFE61
:106C00001FFA8AFA002D48D0023F9446039237F8C3
:106C1000022F013E013D8EEA0202AE42134496BFAE
:106C2000BBF8002052468AEA0202144443EA0402F6
:106C300082EA000211FA82F12CF8021B98BF0BF1D4
:106C4000020B090C240C1B0C002DE0D1DDE90232F3
:106C500002EB4303991E8A420AD833F8020C38B972
:106C6000043B02E01888023B10B99A421946F9D950
:106C7000023101988A1A5210426098F8003099F84F
:106C800000200178C2F30002C3F30003134363F34F
:106C90000001017005B0BDE8F08F1346DAE700BFD0
:106CA0002DE9F04F90464B685268934283B00F46EF
:106CB000814602D24746134688463A78D20756BFE5
:106CC00098F80010012101F0010119444846FFF72E
:106CD00031FA3B7898F800107A68019283EA010053
:106CE000DB43C9431446D9F808C0BE68D8E9015E41
:106CF00000F0010003F0010301F00101002A4BD074
:106D0000023E62464FF6FF7A36F802BF013D013C73
:106D1000D344A5425B4496BFBEF800B04FF6FF7B5C
:106D2000D344594483EA010B10FA8BF022F8020B8A
:106D300098BF0EF1020E000C090C1B0C002CE3D1C5
:106D4000019B0CEB430310B101221A8002339A1EFF
:106D500094450AD833F8021C39B9043B02E019887B
:106D6000023B11B99C451A46F9D90232A2EB0C023A
:106D70005210C9F804203B7898F8002099F80010C8
:106D8000C2F30002C3F30003534063F3000189F828
:106D9000001003B0BDE8F08F6346D4E730B44B6811
:106DA000044623B1536813B130BCFFF751BA002336
:106DB000636030BC704700BFF8B54B68054673B3DD
:106DC000137813F001062AD153685BB308461446C2
:106DD000FFF7C6F907462046FFF7C2F9012104462E
:106DE0002846FFF717FA62680AB3A1680B88DB0729
:106DF00006D56B680BB17B6813BB6E60D4E90121CB
:106E000001230846FFF7F2F8606080B17B68002B31
:106E1000E9D03A4639463846FFF71AFAE3E7002345
:106E20006B60F8BD0121BDE8F840FFF7F3B917B179
:106E30003846FFF7E5F92046BDE8F840FFF7E0B92E
:106E40003A4629462846FFF703FAD4E90121D7E755
:106E50002DE9F04F0F4651688FB0144601311E46A0
:106E60000546089207930590FFF764F96368A868E0
:106E700001335A00002143F07BFC00236B60616802
:106E800038460131FFF756F921463846FFF7A0FA98
:106E900073687C680193A34215D9059A0023536057
:106EA000089B079A1B7812785340DB0708D5059A90
:106EB000137843F0010313707B68002B40F00881C6
:106EC0000FB0BDE8F08FB268B868AE680690029265
:106ED000099680F0F580019B03F1004001384300E2
:106EE0000393029B33F8103019044FF0000E07D4BF
:106EF0005B009BB20EF1010E1A041FFA8EFEF7D54D
:106F0000069B002223F81420796801311C4603EB0C
:106F100041039C4279600FD2CEF11005A44623882C
:106F200003FA0EF10A4324F8022B79680CEB4106B0
:106F3000EB40B4429AB2F2D3029A32F8103003FA1C
:106F40000EF0019B0490012B08D9039BD318CEF1BE
:106F5000100233F8023CD34018430490019C059B77
:106F60000A1B6FF000405A600144024409987B6894
:106F700000EB42020092069A9C4202EB410A5AD26E
:106F8000029BA3F1020B5646BAF80080039B3AF825
:106F900002CDAAEB03094E45049B4CEA084CBCFB0E
:106FA000F3FC4FF000031ED9029A1C46951E48467A
:106FB00035F8022F018802FA0EF242EA1444A2B216
:106FC0000CFB02F21FFA82F811FA83F1A1EB08011F
:106FD00020F8021B120CC2EB2342B04202EB214309
:106FE000E6D3BAF8028013EB08081AD04E4564D9EC
:106FF000002318465C46494634F8025F0A8805FAC1
:107000000EF545EA104012FA80F2134421F8023BD3
:10701000B1424FEA1343EFD313EB08080CF1FF3CE6
:10702000E4D1009B019A23F802C900937B68013BDD
:107030009A427B60A7D3069D03F10043013B05EB19
:10704000430085420CD8CEF110040022038843FA95
:107050000EF10A4320F80229A34085429AB2F5D9DD
:10706000059B5B688BB103F100410139099800EB86
:10707000410230F8111041B9059802E032F8021DC2
:1070800019B9013B4360002BF8D17B68002B3FF41A
:1070900007AF03F100410139069800EB410230F8D7
:1070A000111029B1FCE632F8021D00297FF4F8AE78
:1070B000013B7B60002BF6D1F2E60CF1FF3C95E73B
:1070C0002146FFF773F8002818D0BFF604AFE4E6B6
:1070D00000230BA84FF0FF31CDE90B330D93FFF7E1
:1070E00099F805990BAA0846FFF71CFC079A394640
:1070F0003846FFF717FC0FB0BDE8F08F012378602A
:1071000033806B60CCE600BF2DE9F0414C6884B061
:1071100014B11478E40704D50023436004B0BDE83B
:10712000F0815C68012C03D19C682488012CF3D089
:1071300015460C4601211F460646FFF76BF86B68A3
:10714000002BEBD02046FFF70BF804462846FFF74C
:1071500007F80023CDE9023342680193054652B394
:10716000984607E022463B46214601A8FFF770FEFD
:107170006A6802B3A9680B88D8070DD573680BB18C
:10718000636853BBC6F80480324631463B4601A8CB
:10719000FFF75EFED5E9012101230846FEF726FF31
:1071A000686040B16368002BDCD02246214620464F
:1071B000FFF74EF8D6E79DF804309B0707D514B1CA
:1071C0002046FFF71DF82846FFF71AF8A6E70398B0
:1071D000FCF796FF002CF3D1F5E722463146304606
:1071E000FFF736F8D0E700BFD0E9011202EB41010A
:1071F0008A4217D28B1EC2F1010210B41A4422F047
:107200000102891A0439002233F802498B4244EA08
:107210000242F9D103785DF8044BD90748BF5242C6
:107220001046704703780022DB0748BF52421046E1
:10723000704700BF30B4D0E9013505EB43039D42F0
:107240004FF0000203D308E0B2F5004F0DD233F83F
:10725000024D9D4244EA0242F6D30378DB0748BF61
:10726000524201200A6030BC7047002030BC704799
:107270002DE9F04F83B0D0E901AB0192002945D050
:107280009E18BAF1000F3BD0019A0027BC46012599
:1072900003EB02093BF8022B0CF1100C42EA074702
:1072A0000BE0A34206F8012C2DD0ACF1080CBCF188
:1072B000070F26464FEA17271DDD90F80080BAB267
:1072C00018F0010F06F1010E06F1FF346FEA020813
:1072D00003D055FA88F292B2150AD2B20029E0D151
:1072E000CE4532700FD0ACF1080CBCF1070F7646DA
:1072F0004FEA1727E1DCBAF1010ACBD1324659B186
:10730000F21A1E460BE003B0BDE8F08F1E46BAF13C
:10731000000FB9D11A461E4601990B449A1A0378F8
:1073200013F0010F304614BFFF21002103B0BDE868
:10733000F04F43F01DBA00BFD0E9012101EB42023A
:107340009142A2F102031CD2C1F10101194421F0C2
:107350000101521A9FED0C0A9FED0C7A043A33F8A2
:10736000021907EE901AF8EEE77A9342E0EE077AF8
:10737000B0EE670AF3D10378DB0748BFB1EE400AED
:1073800070479FED010AF6E700000000000080470B
:107390002DE9F84F45689DF82870ADB9002A00F036
:1073A000928013780B992BB101F8013B12F8013F41
:1073B000002BF9D10846302200230A7000F8013F63
:1073C0000B9BC01ABDE8F88F4FEA450B80460C4670
:1073D000584600219A469146FCF762FE5A460546F9
:1073E000D8F8081043F080F905EB0B01881EDDF892
:1073F0002CC08542AAF13A0E624662D8824600232A
:10740000BAF800B04BEA0343B3FBF4FB2AF802B925
:10741000554504FB1B33F3D93033392B88BF7344F4
:10742000DBB28D42137002F1010A0CD22B88002BC3
:1074300043D1AB1C04E0BBF800600233002E3CD10A
:1074400099429B46F7D83FB1AAEB0C0CBCF1030F55
:1074500002D1577002F1020A2846FCF751FEB9F139
:10746000000F11D0484643F0B9F9484481450BD28A
:107470000AF1FF32034613F8011D02F8011F994576
:10748000F9D1A0EB0900824498F80030DB071CD446
:107490000B9A0AF1FF339A4207D21178187802F852
:1074A000010B03F801199342F7D800230B9A8AF8CD
:1074B0000030AAEB0200BDE8F88F67B9524685425A
:1074C0009CD93023ADE70B9974E72D238AF800305F
:1074D0000AF1010ADCE7AAEB0C03032BEED102F15F
:1074E000020A5770D4465246E9E700BFD0E902329B
:1074F00093423DBF5A1C826018784FF0FF307047AE
:1075000010B50368044613B14068FCF7F9FD204646
:10751000BDE81040FCF7F4BDF8B504460D46102058
:10752000002116461F46FCF7BBFD054907602E44A7
:10753000C660C0E90155C4E90001024AA260F8BD75
:10754000ED740008017500080269272A2ED0222A4E
:107550002CD0A2F16201132938D8234BCB40DB4356
:1075600013F0010332D1416927291FD022291DD0F0
:10757000722A1ED0662A31D1722918D110B48469BA
:10758000272C26D0222C24D0722A0BD0622A09D193
:10759000722907D18369272B1BD0A3F12203B3FAE9
:1075A00083F35B0918465DF8044B704701231846C6
:1075B00070476629E2D06229F9D18369272BF5D07B
:1075C000A3F12203B3FA83F35B09F0E70023184623
:1075D0007047012318465DF8044B7047622AE6D1D4
:1075E0007229E4D1E9E700BF1100090038B502694A
:1075F0000A2A044628D0C36A092A04BF073323F0A5
:1076000007030133C362D4E9051294F87030C4E96A
:10761000041233BBD4E9010398476369A0610D2BC1
:107620002CD0013034D094F8703063B1236953B951
:10763000D4E90701C4E90401626A84F87030636622
:10764000A4F87230A26138BD836A01221344C0E9F4
:107650000A32D4E9051294F87030C4E90412002B00
:10766000D8D0B4F87210606E81421BD04D1CA06E51
:10767000A4F87250405CA0610D2AD6D10A2398422A
:107680006361D0D1D4E901039847A0610130CAD128
:1076900063695A1CC7D00A2BC5D00A2294F87030EF
:1076A000A261C2E700210D2AA161BFD10A22626155
:1076B000BBE700BF70B5044600690E460025431CB9
:1076C00012D00A2808D10EB1636B6BB12046FFF7C8
:1076D0008DFF01252069F2E7FEF7DCFBA8B92369DD
:1076E000232B03D05C2B0AD0284670BD2046FFF721
:1076F0007DFF23695A1CF7D00A2BF7D1E3E76369B2
:107700000A2BF1D12046FFF771FF2046FFF76EFFED
:107710002069D4E72DE9F04F426E87B0824622B14E
:1077200090F87020002A00F0CF800021CAF8541091
:107730005046FFF7BFFFDAF83020DAE90A41002AA5
:10774000CAE91141C0F2B78008D0013A0B21CAF84A
:1077500030208AF84C1007B0BDE8F08F28B3DAF873
:10776000342012BBDAE90F5005F10042013A0A2435
:107770008AF84C4030F812604C1EB44200EB4202D2
:10778000E9D000F2EA820CD2691E4B1BCAF83C1009
:10779000CAF8303032F8023D9C4201F1FF31F4D397
:1077A000D9D002228AF84C20D5E7DAF81040661CBE
:1077B00000F0B4805046FFF7C7FE8146002800F075
:1077C00054820022752C17468AF84C2004926DD002
:1077D000622C00F06381722C00F09081662C00F026
:1077E0009981002502951022002FB4D1CDF8109078
:1077F0009AF84C30002B40F032818AF84C20002D52
:1078000040F03381222C504618BF2724FFF7EEFEAC
:10781000DAF81010A14200F0308101250026481C42
:10782000B346CDF804900AF1500827D0012D79D045
:10783000AB4528D28C4200F0838027B17B2900F031
:107840003D817D295ED0002E6FD0232900F08581F7
:107850005C297CD03A2903D0019B002B40F0298180
:107860004046FDF7B5FD002301935046FFF7BEFEED
:107870004FF0000BDAF81010481CD7D1AB453CBFD5
:1078800003238AF84C3059460AF15000FDF712FEE6
:1078900001215046FFF70EFF5046FFF755FE002826
:1078A0003FF459AFDAF81040752C91D1002301252F
:1078B0001022029398E701320C21CAF830208AF88E
:1078C0004C1007B0BDE8F08F29216030FDF780FD36
:1078D000DAE90440CAE90740DAF81810DAF8682053
:1078E000CAF8241001258AF870501178CAF81010CF
:1078F0005178CAF814109278CAF818200322AAF80E
:10790000722012E74046FDF763FD002E40F01A8119
:1079100050460026FFF76AFEB346ABE700228AF81E
:107920004C2018E70A2983D1A8E75C2913D0C9B2F3
:107930004046FDF741FDB3465046FFF757FE99E735
:10794000214640460BF1010BFDF742FDF4E704230D
:107950008AF84C309CE750460391FFF747FEDDE97B
:107960000231DAF810B0002B40F0B880ABF10A0217
:107970006E2A00F25181DFE812F06F004F014F01D3
:107980004F014F014F014F014F014F014F014F0177
:107990004F014F014F014F014F014F014F014F0167
:1079A0004F014F014F014F014F0147014F014F015F
:1079B0004F014F0147014F014F014F014F014F014F
:1079C0004F014F014F014F014F014F014F014F0137
:1079D0004F014F014F014F014F014F014F014F0127
:1079E0004F014F014F014F014F014F014F014F0117
:1079F0004F014F014F014F014F014F014F014F0107
:107A00004F0108034F014F014F014F014F014F013B
:107A100033014F014F014F014F014F014F0147010A
:107A20004F014F014F014F01F4002D014F014F0154
:107A30004F0140014F014F014F014F014F014F01D5
:107A40004F013D014F014F014F012A014F01270115
:107A5000330130014F0104014FF0000B6CE79342FA
:107A60007FF479AE002D3FF4CDAE5046FFF7BEFD5A
:107A7000022D5DD0DAF81040C4E6DAF81430A342E3
:107A800002D021460125C9E65046FFF7AFFD50461A
:107A9000FFF7ACFD0325DAF81010BFE6DAF8143072
:107AA000722B0BBF4B4600230225012502931122A6
:107AB0009AE60AF16000FDF78BFCD6E64046FDF73A
:107AC00087FCDAF8643086F00106ABB35046FFF766
:107AD0008DFD4FF0000B0196CCE65C214046FDF792
:107AE00077FCBBF1FF3FB7D0C44B9B4540F28C8085
:107AF00001238AF84C304FF0000B1DE7DAF8143000
:107B0000622B25D0662B00F0A981CDF808900125C5
:107B1000102269E6DAF81430722B00F09F81049B82
:107B2000002B7FF418AE02934F46012510225FE62A
:107B30005046FFF75BFD9DE7B1490AF16000FDF794
:107B40009FFCC3E72C210AF16000FDF741FCDFE652
:107B5000CDF808900225112246E605238AF84C301C
:107B600096E64FF0070B9AF84C20102A76D0112A8F
:107B7000BED15FFA8BF14046FDF71EFC4FF0000BC3
:107B8000DAE60123CDF80C904FF0000BA1460595E5
:107B90001C460AE02846FEF7E1F94FEA0B1B834436
:107BA000631E002C00F0D4801C465046FFF71EFDDB
:107BB000DAF810502846FEF78BF90028EAD14C4637
:107BC000059DDDF80C9093E74FF0090BCBE74FF0E4
:107BD0000D0BC8E74FF0080BC5E74FF00B0BC2E7E2
:107BE0009AF84C20112A0BD0BBF1750F14BF072354
:107BF0000323C7E74FF00A0BB5E74FF00C0BB2E7D2
:107C00005C214046FDF7E4FB9AF84C20102A25D071
:107C1000BBF1FF0FABD96BE7ABF1300107293FF6A2
:107C20005CAFDAF81430303B072B00F297815046F6
:107C30000391FFF7DBFCDAE904320399303A303B79
:107C4000072A03EBC10B3FF64CAF5046FFF7CEFCC3
:107C5000DAF81020303A02EBCB0B42E759464046A7
:107C6000FDF7B6FB4FF0000B66E62046FEF71CF969
:107C70000446DAF8100024BB5F2822D07F2820D8E1
:107C8000FEF71CF9002840F08280DAF810602E2EF2
:107C900000F02581282E00F063815A4C0025282110
:107CA00023460AE063290AD05978013501330029B7
:107CB00000F0D880B14200F0DC806529F2D10133B8
:107CC000F2E70D220AF15004C1B28AF84C20204696
:107CD000FDF772FB5046FFF789FCDAF81000421CF2
:107CE0000FD0FEF7E1F840B9DAF810005F2806D0AF
:107CF0007F2804D8FEF7E2F818B1DAF81000C1B214
:107D0000E5E72046FDF744FB3F4D40490646002489
:107D100007E0FFF620AD0134242C3FF41CAD55F8EC
:107D2000041F304642F064FD0028F2D104F1130232
:107D3000D2B2162A8AF84C207FF40DAD344AD2F81C
:107D40003C21002A14BF132215228AF84C2002E598
:107D50004C46059DDDF80C90C3E6DAF838209542D4
:107D60000AD308325100FCF7BDF9DAE90E250832D2
:107D7000CAF84000CAF838206A1CCAF83C2020F82B
:107D80001540DAF830200132CAF83020E3E4DAF89E
:107D900010102E2900F091800E2230298AF84C20F4
:107DA00000F08F800AF150052846FDF711FB504680
:107DB000FFF71CFCDAF810000F26431C3FF4CBAC95
:107DC0001CB920F02003452B24D0FEF76DF890B3AA
:107DD000DAF810102E290ED021F020034A2B0AD0F9
:107DE0002846FDF7F5FA5046FFF700FCDAF81000D8
:107DF000431CE5D1AFE48AF84C60F1E7FFFF1000C7
:107E0000648805081C8805087C890508148805080D
:107E10003C3A0020652128468AF84C60FDF7D8FAE4
:107E20005046FFF7E3FBDAF810002B2801D02D288D
:107E3000C3D10146D4E7DAF81000FEF73FF8002876
:107E4000C6D1DAF810102E29D5D05F297FF483AC83
:107E50005046FFF7CBFBDAF81000AEE709228AF8AC
:107E60004C2078E45046FFF7C1FB01228AF84C20F1
:107E700071E450461C46FFF7B9FB212E5AD02E2E36
:107E800063D003346E1C09E0652B36D114F8013C35
:107E9000DAF810209A422CD00234013614F8023C51
:107EA000632BF1D114F8013CDAF810209A4224D166
:107EB0005046FFF79BFB3546EEE70F228AF84C2031
:107EC00070E7DAF8142042F02002623A162A3FF6F0
:107ED00069AF304C24FA02F202F0010462E7DAF8EA
:107EE0001400FDF7EBFF00287FF451AFDAF81060C3
:107EF000D0E650463546FFF779FB274A525D8AF8AF
:107F00004C2002F0FD0159290ED05D2A0CD002F060
:107F1000FB015A2902D05C2A7FF41DACDAF8342028
:107F2000013ACAF8342016E4DAF834200132CAF8EB
:107F3000342010E4DAF810203D2A96D15046FFF79D
:107F400055FB3E228AF84C2005E4DAF810202E2A50
:107F50000CD061228AF84C20FFF7FDBB8B46C3E5AD
:107F60005046FFF743FB0D4C00258AE7DAF8142052
:107F70002E2AEED15046FFF739FB5046FFF736FB6D
:107F800012228AF84C20FFF7E6BB054819F074FF6F
:107F900007F000F901204000508905081C880508F9
:107FA0007088050870B584B001AD85E80E000646FE
:107FB00000217420FCF774F80446034695E8070096
:107FC00043F8046B002583E807006FF001060A22DE
:107FD0000123A263A362E3632946E662C4E90C5568
:107FE0001420FCF75DF82021206404F15000FDF717
:107FF00027F9294604F16000FDF722F9236C204699
:108000001D80C4E905552561FFF7F0FA2046FFF70A
:10801000EDFA2046FFF7EAFA2046FFF77BFBA36C58
:10802000012B18BF0B23204618BF84F84C3004B036
:1080300070BD00BF30B585B001AC05462046FFF7E6
:108040006BFA284694E80E00FFF7ACFF05B030BD90
:1080500030B585B001AC01460546204617F048FC16
:108060002846FDF755F894E80E00FFF79BFF05B092
:1080700030BD00BF80B110B50446C3684068984762
:1080800004F15000FDF728F9206CFCF739F8204680
:10809000BDE81040FCF734B8704700BF38B50D4656
:1080A000D0E903138B420446406908D3103189009C
:1080B000FCF718F8D4E9032310326061E2605A1C1F
:1080C000226140F8235038BD2DE9F0410E46D0E939
:1080D00000158D42044617468068984608D3103133
:1080E000C900FBF7FFFFD4E900351033A06023601F
:1080F0006B1C636050F8354000EBC50166F3170454
:1081000040F83540CF70C1F80480BDE8F08100BF71
:10811000F8B50C680E46154634B3D4E900139A1826
:108120008A4204D804F1080062601844F8BD29446A
:108130000746083100222046FBF7E0FF48B1D4E9AA
:1081400000232A442260EA1804F1080062601844FF
:10815000F8BD6168024608312046FBF7CFFF63682F
:1081600023603B6863603C60102D2F4638BF1027AA
:1081700007F108000021FBF793FF0023C0E900731B
:10818000306043680446EA1804F10800626018444D
:10819000F8BD00BF70B586690C4696F84C100D29E5
:1081A00082B0054610D00E292ED00F295BD0A1F148
:1081B0001003012B18D9090141F00E01284602B025
:1081C000BDE87040FFF76ABFD6E91510FCF7DCFE8A
:1081D000902C4FEA001452D044F00201284602B01D
:1081E000BDE87040FFF75ABFD6E915100A2943D8F9
:1081F000FCF7CAFE96F84C30B8B1102B14BF0A2118
:10820000062141EA0011D9E733460022D6E91510CC
:1082100005F06CF8C307044611D544F00101284667
:1082200002B0BDE87040FFF739BF1B4C1B48D6E9D0
:108230001521102B18BF20460DF064FF044605F1F0
:1082400024010C2205F12000766CFFF761FF4FF44A
:108250009D730660C0E901340146284602B0BDE8BE
:108260007040FFF71BBFD6E91510002300960122CE
:1082700005F0E0F80446E2E7FCF73EFEBAE744F01A
:108280000601002205F1280007F048FA0028A3D0D3
:108290004468E207D3D5C0E7A8B905088CBC050837
:1082A000B0F59F7F09D010F0010304D043080CBF44
:1082B000012000207047184670470120704700BF1A
:1082C000B0F5AF7F09D010F0010304D0430814BF0C
:1082D000012000207047184670470120704700BFFA
:1082E00010F0010308D130B110F0030209D1037975
:1082F0003A2B08D01046704740F00100086001207A
:1083000070471846704783680B6013F0010008D16E
:108310009A07F0D11868044BC01AB0FA80F04009EF
:1083200070470120704700BF28AC05082DE9F04FC9
:108330002D2A87B0154604460E461F467ED1D0E949
:10834000043203F18043013B52F82330002B6DD1FE
:10835000A5F12603022B40F25081292D00F09B81CC
:10836000052D40F0FC81D4E9043203F18043013B48
:10837000990052F82380B8F1000F00F0178118F02F
:10838000030F40F0138198F80430A3F15600012840
:1083900040F20C810A4452F8042C02F00F01022929
:1083A00040F004812C2B40F00181D8F8083003F014
:1083B0000F01022940F0FA801B09482B40F0F6809B
:1083C000D8F80C30002B00F0F18013F0030B40F0D4
:1083D000ED801979302940F0E980D3F808900192B6
:1083E00004A94846FFF77CFF019A8246130900283A
:1083F00000F0058222F00F0242F0060104F128008D
:108400000122019307F08AF9019B049A4260184601
:10841000FCF7AAFE03785F2B236900F0E781013B9C
:10842000494623612046FFF739FEBFE0990702D194
:108430001B79922B8CD007B0BDE8F08FA2F11E0300
:10844000012B00F293800369781E002F00F06C81ED
:108450006FF04048A8EB00021A44D4F814C0DB1BAC
:108460005CF822104CF823100028E4D01E2DBE46E4
:1084700003466FD0B1F59F7F03D0CA0754D54A0891
:1084800057D11A46FF1A3BB12369591E0023C81A57
:1084900001339A42FBD82061012FCCD0A5F12303F0
:1084A000022B00F24981D4E9043203F18043DB1B43
:1084B00003A952F82300FFF713FF002876D0232DDD
:1084C00000F02981242D14BF4FF018094FF017092F
:1084D000B7F1020800F12C810DF1100A6FF0404B4A
:1084E0000BE00399484606F047FC08F1FF38B8F165
:1084F000FF3F0346039000F0EE80D4E904325B4472
:10850000A3EB0803514652F82300FFF7E9FE0028C9
:108510004CD0B9F1220F049AE3D110460BF04AFA7D
:10852000002843DB049ADCE7B1F5AF7F01D09E461B
:10853000013BD4E9042C013802EB0801091AA2EB33
:108540000E025CF821104CF822101A46002899D02F
:108550001E2D8FD1B1F5AF7F93D0CA0702D54A083F
:10856000E7D08EE7B1F59F7FE1D1E2E7202A95D1F0
:10857000D0E9043103F18042013A51F82220B2F5EA
:108580009F7F37D0D0070DD5520814BF4FF49F718D
:108590004FF4AF71013B23612046FFF77FFD07B029
:1085A000BDE8F08FB2F5AF7F00F0B28007F10208AE
:1085B0004FEA880804F12401424604F12000FFF745
:1085C000A7FD45EA07250146C0E9006567B1A8F1A6
:1085D00004020244D4E90435013B236155F82330F9
:1085E00042F80439013FF5D12046FFF757FD07B0A7
:1085F000BDE8F08F4FF4AF71CCE7D4E9043203F15A
:108600008043DB1B03A952F82300FFF769FE002813
:10861000CCD0A7F10208B8F1000F40F389800DF12A
:10862000100A6FF040490DE00028BFDB5846DDE935
:10863000031206F0A1FBA8F10208B8F1000F0346EF
:10864000039048DDD4E9043208F1FF314B445B1A52
:10865000514652F82300FFF743FE0028A6D0D4E984
:1086600004324B44A3EB080352F82330C3F307133F
:10867000472B9BD0492B99D0293B5FFA83FB049869
:108680000BF098F9BBF11A0FCED9BBF11E0FCDD963
:108690000028CBD18AE7D4E9043203F18043013BBF
:1086A00003A952F82300FFF71BFE00283FF47EAF1A
:1086B000D4E9043203F18043023B039952F823309A
:1086C000C3F30713382B1ABF443BD8B2022005F07E
:1086D00063FC0346039003F0010817B12269D71B1E
:1086E0002761B8F1000F19D104F124010C2204F123
:1086F00020000193FFF70CFD01464FF49D72019B92
:10870000C0F80080836020464A60FFF7C7FC92E60D
:108710004FF49F713EE74FF01609D9E643F001018F
:108720002046FFF7BBFC86E601274FF0FF32ACE6A0
:10873000039B03F00108D0E72A2D7FF409AED4E9AA
:10874000043203F18043DB1B03A952F82300FFF737
:10875000C7FD00283FF42AAF4FF02209B8E62C2DC0
:108760007FF424AFD4E9043203F18043023B980044
:1087700052F8233003F00F0102297FF417AF0244AF
:10878000D2F804C0BCF1000F3FF410AF1CF003029C
:108790007FF40CAF9CF8041032297FF407AF23F06C
:1087A0000F0343F006011F48DCF8088006F0B6FF0F
:1087B00000283FF4FBAE4FEA1811406804AA05F008
:1087C00071FD049B002B3FF4F1AE13F0010807D1BB
:1087D0009A077FF4EBAE144A196891427FF4E6AE33
:1087E000059A002A7FF4E2AE039376E7023B236109
:1087F00020465B4659460822FFF798FD1BE60B48CA
:1088000019F03AFB01460A4809F0F4FEA369D8F8CA
:10881000002019680546534609F01EFF2846FBF75D
:1088200019FC00BF0C8A050828AC0508A48A0508B5
:10883000B8A6050803685BB113F0030F0BD110B4A1
:108840001C798C420AD010605DF8044B01207047FF
:1088500013601846704710600120704703F108014B
:10886000116058685DF8044B000A70472DE9F04F1D
:1088700093B0402300240390884602920593184643
:10888000CDE9064404E0059840080128059006D982
:10889000C0000021FBF712FC07900028F3D0002352
:1088A0002020CDE908030A9305E008984008012834
:1088B000089040F25A8280000021FBF7FFFB0A90EB
:1088C0000028F2D0079B002B00F04F8200231946AE
:1088D0000FA8CDE90D33CDF82C8006F0D3FE029B16
:1088E000002B00F01582022B0CBF3F220022002338
:1088F00005A8D8F84410DFF82C93FFF7E5FB069B9A
:108900004FF0000B002B78D0079AC34DC34E013BAC
:1089100002EBC301069352F8330091F803A0C04A5A
:108920004C6812F80A200092C0F317020192009AD4
:1089300015F80A10BAF1630F02F0300088BF41F455
:108940008071102806EB410602F00F0525D0202883
:1089500040F08580BBF1000F00F0BF8004F10041C2
:10896000013936F8111009EA0101B1F5405F00F054
:10897000B080012CC6D998F84C100239092900F2B0
:10898000FB81DFE811F0F001F901E701E701E70100
:10899000E701E701E701F901D40114B1BBF1000FD0
:1089A000B0D0A54225D936F814C00CEA0900610000
:1089B000B0F5805F06EB010740F0368198F84C0077
:1089C000CCF30B0C604500F0448102310E440DE005
:1089D000374636F8022B02EA0901B1F5805F40F014
:1089E0002381C2F30B02824200F033810134AC4296
:1089F000EED34FF0010B002B86D10FA8009306F0A9
:108A000067FE0E9868B1009B41681A460831FBF773
:108A100075FB0E9B5A681A60DDE90D235A600E9BA8
:108A20000D9398F84C100029A7D1099B002B00F05A
:108A3000A3810A9B07981B680C93FBF761FB0A98BC
:108A4000FBF75EFB4046FFF715FB0CAB93E803001A
:108A5000039B83E80300184613B0BDE8F08FBBF119
:108A6000000F00F0A580022D00F0CC80012C00F05A
:108A70009B8014F0010B04D0032D7FF47CAF4FF0EA
:108A8000010B009AD20704F1FF3306D5718809EA79
:108A90000101B1F5805F08BF6308012B11D1BBF163
:108AA000000F0ED1069B2DE7BCF1010F00F01581E0
:108AB000009B190604D5002105A8FFF7EFFA013441
:108AC00023465246019905A8FFF730FC4FF0000BF2
:108AD000E8E7002105A8FFF7E1FAA54237D936F803
:108AE000140000EA09034FEA440BB3F5805F06EB7C
:108AF0000B0740F0A78098F84C30C0B283421A466A
:108B00004FD10BF1020BB34415E001344046FEF7A0
:108B100001FEAC421BD05F463BF8023B03EA090270
:108B2000B2F5805F40F08E8098F84C10DBB299422D
:108B300008467FF422AF0D28E7D1514605A8FFF77C
:108B400029FB01344046FEF7E5FDAC42E3D1029B30
:108B5000002B00F09A80BAF1050F40F0BA80DDE9F1
:108B6000097007F1804101398C0050F82130002B49
:108B700040F0D580044454F8043C9A0700F0CA80C1
:108B800003F00F03022B00F0CA800023023F01997B
:108B90000997082205A8FFF7C9FB4FF0000B069BB9
:108BA000B0E6002C40F0C180069B4FF0010BA9E617
:108BB00004F001032B4036F8137007EA0901B1F500
:108BC000805FC7F30B0751D198F84C20BA4214D1FB
:108BD000EBB101344046FEF79DFD04F001032B404C
:108BE00036F8137007EA0902B2F5805F3CD198F8B5
:108BF0004C20C7F30B07BA42EAD0022D04F101045E
:108C00007FF434AF012CCFD04FF0000B39E7514641
:108C100005A8FFF7BFFADCE7F88E0508708B05089A
:108C2000C08A050800F0FFFF631CAB420BD30B9B0F
:108C30003A78596C05A80023FFF746FA4FF0000B6D
:108C4000069B5FE6631C5246019905A8FFF73CFAB4
:108C5000EDE7514605A8FFF79DFA4046FEF75AFD9D
:108C60004FF0000B069B4DE6C7F30B07631C524603
:108C7000019905A8FFF728FA0B9BFAB2596C05A8D1
:108C80000023FFF721FA069B3CE6002D4BD0DDE9DF
:108C9000097007F180410139002406EB4505A4461F
:108CA00009E00B1B50F823300BB10CF1010C01341F
:108CB000AE423FF4F9AE35F8023D03EA0902B2F5DF
:108CC000805FEED1DBB20D2BF2D101340CF1010C3F
:108CD000EEE7002DDBD12C46EAE6009B5D067FF532
:108CE000E7AE6CB17B1E191B00EB870000240993D3
:108CF00050F8042D013B002A18BF14469942F6D1C2
:108D0000214605A8FFF7CAF94FF0000B069BF9E5CD
:108D10003D22ECE51BB11B793A2B3FF436AF002D19
:108D2000BAD12C46C4E6029CC2E6114625E6134899
:108D300019F0A2F80146124809F05CFC04462046EE
:108D40000023D8F84420D8F8001009F085FC20460C
:108D5000FBF780F90B4819F08FF801460A4809F033
:108D600049FC0446EBE70948E2E7094819F084F8B2
:108D70000146084805F040F80748ECE7388A05083E
:108D800014A50508808A0508B8A605084C8A0508B8
:108D9000208A0508A0A50508948A0508406838B10E
:108DA00010B54468FBF7ACF92046002CF9D110BD92
:108DB000704700BF2DE9F04105460E4630200021E6
:108DC00090461F46FBF78CF9072D0446A0F8148047
:108DD0000570C66005D0012D03D00A4B5B5DC382D0
:108DE00002E0B3681B09E38204F0B0FC04232061B5
:108DF0006783238500212020FBF752F9E06220469B
:108E0000BDE8F081A88F050810B50446C06AFBF7DD
:108E100077F92046BDE81040FBF772B92DE9F04123
:108E2000468DD0F82CC08EB1DCF8043099422CD09D
:108E30000CF10803002403E053F8045CA94215D0A8
:108E40000134B4421F4603F10803F5D1038DB34248
:108E500090460C4605460CD90CEBC607731C6B8577
:108E600000230CF836807C607B707B803846BDE840
:108E7000F0810633D9006046FBF734F92B8D6E8DF7
:108E8000E862063384462B85E6E76746EEE700BFD7
:108E900030B4458DA5B1C06A436899420ED000F147
:108EA0000803002203E053F8044C8C4206D0013240
:108EB000AA42184603F10803F5D1002030BC7047E0
:108EC0002846FBE730B400E018464368002BFBD18E
:108ED000458D9DB1C06A426891420DD000F10802F3
:108EE00003E052F8044CA14206D00133AB421046D5
:108EF00002F10802F5D1002030BC70472846FBE79C
:108F0000F8B54368E3B18C465968C9B15E8DDCF8A9
:108F100004708EB1DD6A6C68A74212D005F10803B7
:108F2000002203E053F8044CA7420AD00132B242B7
:108F30001D4603F10803F5D10B4659680029E5D118
:108F4000F8BD2B78033B022BFAD805268CF800607D
:108F5000456801E006706D68002221462846FFF74B
:108F60005DFF0378002BF5D0032BE9D104230370B8
:108F7000F8BD00BF01B970472DE9F04111F00308B9
:108F800003D14F68FCB2944202D0BDE8F0411847CB
:108F90003F0A0AD01D4606460C1D08F1010854F888
:108FA000041F3046A8474745F7D1BDE8F08100BF10
:108FB0008968024B9D22FFF7DDBF00BF71AB00083F
:108FC0008968024B6B22FFF7D5BF00BF7D9B00086D
:108FD00010B50446084611462268FFF7EBFE636AA7
:108FE000436000238360226A0AB905E01A46936849
:108FF000002BFBD1906010BD206210BD8968806A93
:109000000909002203F05ABC8968806A03F010BC89
:1090100010B504460021006803F01AFD20681421F1
:1090200003F088FB20680121BDE8104003F00EBE6C
:1090300010B504460022806A03F010FC002354F8A7
:10904000280F1A46194603F0E3FD2046BDE81040FC
:10905000FFF7DEBF10B44279446A012A07D00B46FD
:109060002246806A04495DF8044B02F0A3BF204603
:109070005DF8044BFFF7D2BE1894050810B444798C
:10908000426A012C06D00B46806A05495DF8044B04
:1090900002F090BF10465DF8044B02F07DBF00BFA8
:1090A0002094050810B44479426A012C06D00B467E
:1090B000806A05495DF8044B02F07CBF10465DF8FC
:1090C000044B02F069BF00BF10940508C1B130B570
:1090D000CA0783B005460C4613D48B071BD001F09A
:1090E0000F03062B4FEA111111D00A2B23D0022BAC
:1090F0001ED00A2909D0C9B2806A03F01BFB04E024
:1091000070474910806A03F031FB03B030BD806ABC
:1091100003F088FBF9E70968806A03F077FA22799F
:109120000F4B284653F822302146984703B030BDF4
:10913000FFF790FFE9E74379042B04D0806A0E2102
:1091400003F076FBE1E7084601A9FCF71DF8019959
:10915000AC6A0DF0C1FD0146204603F069FBD4E77F
:10916000309105082DE9F04F074683B00C461646AE
:10917000984613E02046FFF7A3F848BBCCB1A307FD
:1091800017D16568EBB21E2B4FEA152529D01F2B8E
:1091900039D0202B0BD1A46886F001062046FFF7BA
:1091A0007FF80028E6D0AEB103B0BDE8F08F2D2BDC
:1091B0000BD021463846FFF789FFB86A4246314650
:1091C00003B0BDE8F04F03F0B3BBA368002BEAD0B7
:1091D000002EE9D0B86A414603B0BDE8F04F03F075
:1091E000A1BB96B1002DDFD0043404EB850554F803
:1091F000041F434632463846FFF7B4FFA542F6D176
:1092000003B0BDE8F08F002EECD0D7F810A06A1E96
:109210000AF10103002A01923B610EDD04EB850592
:1092200086F0010B04F1040959F8041F53465A460D
:109230003846FFF797FFA945F6D1019A0232384622
:1092400054F8221043463246FFF78CFFB86A514665
:1092500003B0BDE8F04F03F03FBA00BF38B50C468D
:109260000546C968FFF732FFA1682846BDE83840C7
:10927000FFF72CBF38B50B79342B0C46054617D0B9
:109280001421806A03F056FAA468C4B1A30704D17C
:1092900023799A2B2AD09B2B16D021462846FFF7FC
:1092A00015FFA86A04220221BDE8384003F014BC6F
:1092B0008968FFF70BFFE468A468002CE6D114214D
:1092C000A86A03F037FAECE7A1682846FFF7FEFE2C
:1092D000E36899680029E4D02846FFF7F7FEA86AFA
:1092E00004220321BDE8384003F0F6BB1421A86A2C
:1092F00003F020FAA1680029EED1D2E710B50446A8
:109300008968FFF7E3FEA06A0021BDE8104003F082
:10931000B9BA00BF2DE9F04115460746B1B98846F4
:109320006DB16E68360A09D004350024013455F851
:10933000041F3846FFF7CAFEA642F7D1B0444146A3
:10934000B86A0022BDE8F04103F0C6BBFFF7BEFEDD
:109350004FF00108E4E700BF0A460021FFF7DABF3B
:109360002DE9F84F0569838BB0F81E80C3836F1C0D
:10937000AB1CB0F818A0B0F81A90036105834783BE
:10938000044688680E46FEF78BFF78B1A4F818A053
:10939000A4F81A90A4F81E8031692046FFF796FEC3
:1093A0002946A06ABDE8F84F03F096B9D4F810B08A
:1093B0000BF101032361B068FEF782FF90B15946BB
:1093C000A06A03F089F9F1682046FFF77FFE39466D
:1093D000A06A03F081F95B460122B1682046FFF7DD
:1093E000C1FED3E73946A06A03F09CFAE7E700BF65
:1093F00010B504468968FFF769FEA06ABDE8104011
:1094000003F082BA2DE9F047D0F8109009F101037A
:10941000036182B0054688688846FEF741FF18BBA5
:109420002C69631C2B610246D8F808102346284695
:10943000FFF798FE2846D8F80C10FFF747FED8F83B
:109440000800FEF73DFF002845D1D8F8103013B9C9
:10945000D8F8143023B1A86A03F0CCF8002846D01D
:109460002146A86A03F038F901AA712108F1100019
:10947000FFF7E0F9074648B3002401E0A74225D0F2
:10948000019B53F82460B068FEF70AFF01340028FE
:10949000F4D1D5F810A00AF101032B610246B1689E
:1094A00053462846FFF75EFE2846F168FFF70EFE9A
:1094B000B068FEF705FF70B9A86A03F09BF888B1A1
:1094C0005146A86A03F008F9A742D9D1D8F8141078
:1094D0002846FFF7FBFD4946A86A03F0FDF802B0F5
:1094E000BDE8F0874946A86A03F01CFAE8E7494658
:1094F000A86A03F017FAB3E7F8B50C46D1E90161A1
:10950000360A0746FFF7E2FD022E15D9033E26F084
:1095100001060336012521693846FFF7D7FDE368C8
:10952000B86A1B09A3F129010235C9B203F0B2FAE6
:10953000B54204F10804EED1F8BD00BF2DE9F041B9
:109540000D46D1E90171A7F10D083F0A0646FFF764
:10955000BDFD012F0FD95FFA88F80835012455F8B1
:10956000041F3046FFF7B2FD01344146B06A03F0F4
:1095700091FAA742F3D1BDE8F08100BF38B50C469F
:10958000C9680546FFF7A2FDA168A86AC1F30711E3
:1095900038291ABF4439C9B20221BDE8384003F066
:1095A00073BA00BF10B504468968FFF78FFDA06A43
:1095B0000321BDE8104003F067BA00BF2DE9F8436E
:1095C000D0F8108091F8049008F1010303614F680E
:1095D000A9F11E09B9FA89F93F0A06464FEA591955
:1095E0000FD00D1D002402E0B06A03F0ADF955F86C
:1095F000041F01343046FFF769FDBC42424649462C
:10960000F2D14146B06ABDE8F84303F065B800BF47
:109610002DE9F0410E46D1E9017104463F0AFFF7FA
:1096200055FD032F83BFD4F8108008F10103236197
:109630004FF0000801250FE01A79852A32D09B6887
:1096400053BB072103F026FABD4204DA424600214B
:10965000A06A03F079F908366B1CBB421EDA0235AA
:1096600031692046FFF732FDBD4205DAA06A03F0FA
:1096700043F9A06A03F052F9F368A06A03F00F02FD
:109680000E2AD9D1C3F307132A2B1ABF393BD9B2FB
:10969000062103F0FFF9D7E73321FAE7032F05DCB2
:1096A000BDE8F081322103F0F5F9CDE72569A06A24
:1096B0006B1C2361294603F035F94146A06A03F08B
:1096C0000BF80121A06A02F09BFFA06A03F022F9C7
:1096D000A06A03F019F92946A06ABDE8F04102F03A
:1096E000FBBF00BF2DE9F0410569CF68AB1C0361EA
:1096F000884604462B460022B968FFF733FD6E1CEE
:10970000D8F808102046FFF7E1FC3146A06A03F0C4
:1097100009F92946A06A02F0DFFFA06A4FF0FF3185
:1097200002F06EFFF9682046FFF7D0FC3146A06AD0
:10973000BDE8F04102F0D0BF2DE9F04F83B0824682
:10974000DDF83090019117469846B9F1000F03D02B
:10975000138B43F008031383A7F82080DAF8002066
:109760001378002B4FD00199538D0868002B38D007
:109770004FF0000B5D4603E0538D01359D422DDA1D
:10978000D66A16F83530043B012B06EBC506F3D834
:10979000798D0029F0D0002401E08C4218DAFB6AB0
:1097A00013F83420052A03EBC40304F10104F4D1B7
:1097B0005A6873689342F0D119467288002302F008
:1097C00025FD798D019B8C4218680BF1010BE6DBBE
:1097D000DAF80020538D01359D42D1DBBBF1000F3B
:1097E00007D14B464246394603B0BDE8F04F03F07F
:1097F000C7B943465A463946CDF8309003B0BDE864
:10980000F04F03F0D3B9019B1868EAE72DE9F04760
:109810000446174600251A468679B0F81490B0F829
:109820001680164B857182B08A4645613946FFF72E
:10983000A1FBA36813B102B0BDE8F087E38AA28A56
:109840004BB142B91946A06A03F046F9A06A03F089
:1098500001F8E38AA28A009204F12801524604F139
:109860002400FFF769FF003618BF0126A671A4F88F
:109870001490A4F8168002B0BDE8F08771B100081A
:1098800070B54379012B04460D4607D00969AA68D3
:1098900020464C23BDE87040FFF7B8BF436A0A4634
:1098A0005B8B0221FFF794FB01462861EFE700BFC5
:1098B00070B50D4641790129064608D0AC69EA68C1
:1098C000304646232146FFF7A1FFE08A70BD1346CC
:1098D00007212A46FFF77CFB0446A861EFE700BF9B
:1098E00010B5436A5A8B0446FFF7E2FF0146204653
:1098F000BDE81040FFF7C2BBF0B54379CE68012B3D
:1099000083B0044617461DD0726900252B4604F12A
:10991000280104F124000095FFF70EFFF1682046AE
:10992000FFF7D4FB062F08D00023A06A1A460121B6
:1099300003B0BDE8F04003F05FB92946A06A03F028
